:100000000C945E000C9486000C9486000C94860080
:100010000C9486000C9486000C9486000C94860048
:100020000C9486000C9486000C9486000C946A0153
:100030000C9486000C9486000C9486000C94860028
:100040000C947F110C9486000C94DF0A0C94B90A6E
:100050000C9486000C9486000C9486000C94860008
:100060000C9486000C948600000000080002010039
:100070000003040700000000000000000000000072
:10008000250028002B0000000000240027002A0083
:10009000040404040404040402020202020203032E
:1000A0000303030301020408102040800102040836
:1000B0001020010204081020DC21D62111241FBECB
:1000C000CFEFD8E0DEBFCDBF11E0A0E0B1E0E0EBC4
:1000D000FDE402C005900D92A23BB107D9F724E0E0
:1000E000A2EBB1E001C01D92A83EB207E1F710E01B
:1000F000CDE5D0E004C02197FE010E94B024CC35AC
:10010000D107C9F70E94641C0C94CB260C94000004
:1001100020E030E0C90163E0880F991F6A95E1F79C
:10012000FC01EA59FD4F108241814C7F4183FC0163
:10013000E859FD4F108241814C7F4183FC01E65913
:10014000FD4F108241814C7F4183FC01E459FD4FFA
:10015000108281818C7F81832F5F3F4F2A30310550
:10016000C9F620E030E0C90153E0880F991F5A9585
:10017000E1F7FC01EA5EFD4F108241814C7F418333
:10018000FC01E85EFD4F108241814C7F4183FC0100
:10019000E65EFD4F108241814C7F4183FC01E45EAD
:1001A000FD4F108281818C7F81832F5F3F4F2A30EA
:1001B0003105C9F620E030E0C90143E0880F991FFE
:1001C0004A95E1F7FC01EA53FE4F108241814C7FD2
:1001D0004183FC01E853FE4F108241814C7F4183F3
:1001E000FC01E653FE4F108241814C7F4183FC01AC
:1001F000E453FE4F108281818C7F81832F5F3F4FBC
:100200002A303105C9F608958EBD00000DB407FEF1
:10021000FDCF8EB50895CF92DF92EF92FF92CF93EC
:10022000DF930E946522C8EBD2E02FE0C22ED12CD2
:10023000E12CF12CA70196010E946E2368830E9495
:100240006522A70196010E946E236A830E9465229F
:10025000A70196010E946E236983DF91CF91FF90E1
:10026000EF90DF90CF9008950E94880080E090E0AA
:10027000FC01EE0FFF1FE554FD4F108221812C7F02
:10028000218301968A30910599F708950F931F9362
:10029000CF93DF938C01EB0186E090E00E94B624BF
:1002A000FC0111830083D383C28315821482A09141
:1002B000B602B091B702109721F015969C938E93D9
:1002C0001497F093B702E093B602DF91CF911F919C
:1002D0000F9108951F920F920FB60F921124AF92B3
:1002E000BF92CF92DF92EF92FF920F931F932F93C3
:1002F0003F934F935F936F937F938F939F93AF93AE
:10030000BF93EF93FF93CF93DF93CDB7DEB72597DE
:10031000DEBFCDBF8091B8019091B9010196909355
:10032000B9018093B8015C9AE090B801F090B901EE
:10033000C7018D7F019751F48091B6019091B7016B
:1003400001969093B7018093B60104C087E0E81648
:10035000F10491F30091B4011091B5018091B601BF
:100360009091B7019801220F331F220F331F280FDE
:10037000391F220F331FF901EA59FD4F9081418146
:100380004370F901EA53FE4F808161816370F80187
:10039000EE0FFF1FE95EFE4F70815181F901EA5EA9
:1003A000FD4FA0802181A982D92EDD0CDD0C2370A8
:1003B000D22ADA829295969596959370242F220FE1
:1003C000220FC82EC294E0EFCE22922BC92ACB82F4
:1003D000382F32953F70462F4295407FB72EB2940A
:1003E000BB0CBB0CF0ECBF22342BB32ABC82352FE4
:1003F0003295330F330F307C272F26952695822F89
:10040000832B8D830E9404018B2D0E9404018C2D6F
:100410000E9404018D2D0E9404018A2D0E94040176
:100420008FE0E816F10489F41092B9011092B80136
:100430001092B7011092B6018091B2019091B30170
:1004400001969093B3018093B2018091B201909193
:10045000B301019751F40F5F1F4F1093B501009343
:10046000B4011092B3011092B2015A9A8BB11BB829
:100470008BB11BB88091B4019091B5010A9721F41A
:100480001092B5011092B4010F900F900F900F9041
:100490000F90DF91CF91FF91EF91BF91AF919F911D
:1004A0008F917F916F915F914F913F912F911F910C
:1004B0000F91FF90EF90DF90CF90BF90AF900F9093
:1004C0000FBE0F901F9018958F929F92AF92BF9280
:1004D000CF92DF92EF92FF920F931F93CF93DF9310
:1004E00097FD06C08A3091052CF089E090E002C0AB
:1004F00080E090E077FD06C06A3071052CF069E07D
:1005000070E002C060E070E0342F403108F03FE05E
:10051000203108F02FE0003108F00FE0812C912C01
:1005200054018394062E04C0880C991CAA1CBB1C81
:100530000A94D2F76401F401E095F095E12CF12CD6
:10054000A32EB12CEC01CC0FDD1FCC0FDD1FA501BC
:100550000E2C02C0559547950A94E2F7DE01AE0DC8
:10056000BF1DAA0FBB1FAA59BD4F40FF09C04C9128
:1005700011961C911197512F53704C295D2908C079
:100580004C9111961C911197512F53704E235F235C
:100590004C93452F43701C7F142B11961C931FEF17
:1005A000E11AF10A44E0E416F10489F640E050E073
:1005B000A22EB12CD501042E02C0B595A7950A94A0
:1005C000E2F7A0FF11C0DE01A40FB51FAA0FBB1FE9
:1005D000AA53BE4FEC9011969C901197192D137051
:1005E000F12EEC28FD2810C0DE01A40FB51FAA0FC4
:1005F000BB1FAA53BE4FEC9011969C901197192DDA
:100600001370F12EEE22FF22EC921F2D1370F12EAB
:10061000192D1C7F1F2911961C934F5F5F4F44308B
:10062000510541F640E050E0A02EB12CD501042E3A
:1006300002C0B595A7950A94E2F7A0FF11C0DE01AC
:10064000A40FB51FAA0FBB1FAA5EBD4FEC90119659
:100650009C901197192D1370F12EEC28FD2810C0D5
:10066000DE01A40FB51FAA0FBB1FAA5EBD4FEC9001
:1006700011969C901197192D1370F12EEE22FF22E6
:10068000EC921F2D1370F12E192D1C7F1F2911962E
:100690001C934F5F5F4F4430510541F6AB01440F4F
:1006A000551F640F751F4EE1489FF001499FF00DE3
:1006B00011246E0F7F1FFB01EB5EFC4F3283008322
:1006C0002183DF91CF911F910F91FF90EF90DF90E9
:1006D000CF90BF90AF909F908F9008950F930E94FE
:1006E000340100E020E04FE064E070E084E090E05E
:1006F0000E94640220E04FE065E070E084E090E05A
:100700000E94640220E04FE064E070E085E090E049
:100710000E94640220E04FE065E070E085E090E038
:100720000E9464020E942A162FE04FE063E070E00E
:1007300082E090E00E9464022FE04FE064E070E00D
:1007400082E090E00E9464022FE04FE065E070E0FC
:1007500082E090E00E9464022FE04FE066E070E0EB
:1007600082E090E00E9464022FE04FE062E070E0DF
:1007700083E090E00E9464022FE04FE067E070E0C9
:1007800083E090E00E9464022FE04FE062E070E0BE
:1007900084E090E00E94640220E04FE064E070E0BA
:1007A00084E090E00E94640220E04FE065E070E0A9
:1007B00084E090E00E9464022FE04FE067E070E088
:1007C00084E090E00E9464022FE04FE062E070E07D
:1007D00085E090E00E94640220E040E063E070E089
:1007E00085E090E00E94640220E04FE064E070E069
:1007F00085E090E00E94640220E04FE065E070E058
:1008000085E090E00E94640220E040E066E070E055
:1008100085E090E00E9464022FE04FE067E070E026
:1008200085E090E00E94640220E040E068E070E033
:1008300085E090E00E94640220E040E069E070E022
:1008400085E090E00E94640220E040E060E070E01B
:1008500086E090E00E94640220E040E061E070E009
:1008600086E090E00E9464022FE04FE062E070E0DA
:1008700086E090E00E9464022FE04FE067E070E0C5
:1008800086E090E00E9464022FE04FE063E070E0B9
:1008900087E090E00E9464022FE04FE064E070E0A7
:1008A00087E090E00E9464022FE04FE065E070E096
:1008B00087E090E00E9464022FE04FE066E070E085
:1008C00087E090E00E9464020E942A1620E040E047
:1008D00061E070E080E090E00E9464020FE020E0C0
:1008E0004FE062E070E080E090E00E94640220E06F
:1008F0004FE063E070E080E090E00E94640220E05E
:100900004FE064E070E080E090E00E94640220E04C
:100910004FE065E070E080E090E00E94640220E03B
:100920004FE066E070E080E090E00E94640220E02A
:100930004FE067E070E080E090E00E94640200E039
:1009400020E040E068E070E080E090E00E94640217
:1009500020E040E069E070E080E090E00E94640206
:1009600020E040E060E070E081E090E00E946402FE
:100970000FE020E04FE061E070E081E090E00E9455
:10098000640200E020E040E062E070E081E090E09E
:100990000E94640220E040E063E070E081E090E0CB
:1009A0000E94640220E040E064E070E081E090E0BA
:1009B0000E94640220E040E065E070E081E090E0A9
:1009C0000E94640220E040E066E070E081E090E098
:1009D0000E94640220E040E067E070E081E090E087
:1009E0000E9464020FE020E04FE068E070E081E0E8
:1009F00090E00E94640200E020E040E069E070E0E6
:100A000081E090E00E9464020FE020E04FE060E0AF
:100A100070E082E090E00E94640200E020E040E0AC
:100A200061E070E082E090E00E94640220E040E03B
:100A300062E070E082E090E00E9464022FE04FE00C
:100A400063E070E082E090E00E9464022FE04FE0FB
:100A500064E070E082E090E00E9464022FE04FE0EA
:100A600065E070E082E090E00E9464022FE04FE0D9
:100A700066E070E082E090E00E94640220E040E0E6
:100A800067E070E082E090E00E94640220E040E0D5
:100A900068E070E082E090E00E9464020FE020E0F5
:100AA0004FE069E070E082E090E00E94640220E0A4
:100AB0004FE060E070E083E090E00E94640200E0BC
:100AC00020E040E061E070E083E090E00E9464029A
:100AD0002FE04FE062E070E083E090E00E9464026B
:100AE00020E040E063E070E083E090E00E94640278
:100AF00020E040E064E070E083E090E00E94640267
:100B000020E040E065E070E083E090E00E94640255
:100B100020E040E066E070E083E090E00E94640244
:100B20002FE04FE067E070E083E090E00E94640215
:100B300020E040E068E070E083E090E00E94640222
:100B40000FE020E04FE069E070E083E090E00E9479
:100B5000640220E04FE060E070E084E090E00E94FA
:100B6000640200E020E040E061E070E084E090E0BA
:100B70000E9464022FE04FE062E070E084E090E0C9
:100B80000E94640220E040E063E070E084E090E0D6
:100B90000E94640220E04FE064E070E084E090E0B6
:100BA0000E94640220E04FE065E070E084E090E0A5
:100BB0000E94640220E040E066E070E084E090E0A3
:100BC0000E9464022FE04FE067E070E084E090E074
:100BD0000E94640220E040E068E070E084E090E081
:100BE0000E9464020FE020E04FE069E070E084E0E2
:100BF00090E00E94640220E04FE060E070E085E059
:100C000090E00E94640200E020E040E061E070E0DB
:100C100085E090E00E9464022FE04FE062E070E027
:100C200085E090E00E94640220E040E063E070E034
:100C300085E090E00E94640220E04FE064E070E014
:100C400085E090E00E94640220E04FE065E070E003
:100C500085E090E00E94640220E040E066E070E001
:100C600085E090E00E9464022FE04FE067E070E0D2
:100C700085E090E00E94640220E040E068E070E0DF
:100C800085E090E00E9464020FE020E04FE069E020
:100C900070E085E090E00E94640220E04FE060E0B8
:100CA00070E086E090E00E94640200E020E040E016
:100CB00061E070E086E090E00E9464022FE04FE087
:100CC00062E070E086E090E00E94640220E040E094
:100CD00063E070E086E090E00E94640220E040E083
:100CE00064E070E086E090E00E94640220E040E072
:100CF00065E070E086E090E00E94640220E040E061
:100D000066E070E086E090E00E9464022FE04FE031
:100D100067E070E086E090E00E94640220E040E03E
:100D200068E070E086E090E00E9464020FE020E05E
:100D30004FE069E070E086E090E00E94640220E00D
:100D40004FE060E070E087E090E00E94640200E025
:100D500020E040E061E070E087E090E00E94640203
:100D600020E040E062E070E087E090E00E946402F2
:100D70002FE04FE063E070E087E090E00E946402C3
:100D80002FE04FE064E070E087E090E00E946402B2
:100D90002FE04FE065E070E087E090E00E946402A1
:100DA0002FE04FE066E070E087E090E00E94640290
:100DB00020E040E067E070E087E090E00E9464029D
:100DC00020E040E068E070E087E090E00E9464028C
:100DD0000FE020E04FE069E070E087E090E00E94E3
:100DE000640200E020E040E060E070E088E090E035
:100DF0000E9464020FE020E04FE061E070E088E0D4
:100E000090E00E94640200E020E040E062E070E0D8
:100E100088E090E00E94640220E040E063E070E03F
:100E200088E090E00E94640220E040E064E070E02E
:100E300088E090E00E94640220E040E065E070E01D
:100E400088E090E00E94640220E040E066E070E00C
:100E500088E090E00E94640220E040E067E070E0FB
:100E600088E090E00E9464020FE020E04FE068E03C
:100E700070E088E090E00E94640200E020E040E042
:100E800069E070E088E090E00E94640220E040E0C9
:100E900060E070E089E090E00E94640220E040E0C1
:100EA00061E070E089E090E00E9464020FE020E0E1
:100EB0004FE062E070E089E090E00E94640220E090
:100EC0004FE063E070E089E090E00E94640220E07F
:100ED0004FE064E070E089E090E00E94640220E06E
:100EE0004FE065E070E089E090E00E94640220E05D
:100EF0004FE066E070E089E090E00E94640220E04C
:100F00004FE067E070E089E090E00E94640200E05A
:100F100020E040E068E070E089E090E00E94640238
:100F200020E040E069E070E089E090E00E94640227
:100F30000F910C942A164F925F926F927F928F922C
:100F40009F92AF92BF92CF92DF92EF92FF920F9358
:100F5000CF93DF938FECC82E82E0D82E812C912C7A
:100F6000E12CF12CC0E0D0E08091010390910203CC
:100F7000881699060CF095C02601F60180819181B2
:100F8000029751F50FE020E040E0BE01C7010E944A
:100F9000640220E040E0BE015701FFEFAF1ABF0A34
:100FA000C5010E9464023E018FEF681A780A20E0B2
:100FB00040E0B301C7010E94640220E040E0B301B9
:100FC000C5010E9464022296CA30D10529F4E2E0EC
:100FD000EE0EF11CC0E0D0E0F60180819181892BFA
:100FE00051F500E02FE040E0BE01C7010E9464021D
:100FF0002FE040E0BE015701FFEFAF1ABF0AC50165
:101000000E9464023E018FEF681A780A2FE040E0E8
:10101000B301C7010E9464022FE040E0B301C501A3
:101020000E9464022296CA30D10529F4E2E0EE0E55
:10103000F11CC0E0D0E0F2E0CF0ED11CF2018081C3
:101040009181019751F500E020E04FE0BE01C7011A
:101050000E94640220E04FE0BE015701FFEFAF1A8B
:10106000BF0AC5010E9464023E018FEF681A780A28
:1010700020E04FE0B301C7010E94640220E04FE08E
:10108000B301C5010E9464022296CA30D10529F439
:10109000E2E0EE0EF11CC0E0D0E0FFEF8F1A9F0AF5
:1010A00063CFDF91CF910F91FF90EF90DF90CF90C2
:1010B000BF90AF909F908F907F906F905F904F9078
:1010C00008952F923F924F925F926F927F928F92EC
:1010D0009F92AF92BF92CF92DF92EF92FF920F93C7
:1010E0001F93CF93DF930E9488000E947311609337
:1010F000BE017093BF018093C0019093C101C0E015
:10110000D0E01FEF9FE0C92ED12CE12CF12CCA308A
:10111000D10509F45DC00E9473116093BA01709308
:10112000BB018093BC019093BD018090BE01909063
:10113000BF01A090C001B090C101DC01CB018819B2
:101140009909AA09BB09883C9105A105B105F8F2E6
:10115000FE01EE0FFF1FE554FD4F10838181836078
:1011600081830E9473116093BE017093BF018093CD
:10117000C0019093C101212C312C0E9465224B01AA
:101180005C010E9465222B013C010E946522A7019F
:1011900096010E946E23062FC301B201A70196019A
:1011A0000E946E23762EC501B401A70196010E940C
:1011B0006E23462F272DB101CE010E9464028FEFCE
:1011C000281A380A8AE028163104B9F621969FCFEA
:1011D000DF91CF911F910F91FF90EF90DF90CF9013
:1011E000BF90AF909F908F907F906F905F904F9047
:1011F0003F902F9008953F924F925F926F927F920F
:101200008F929F92AF92BF92CF92DF92EF92FF9216
:101210000F931F93CF93DF9300D000D000D0CDB7B2
:10122000DEB70E9473116093BE017093BF0180937B
:10123000C0019093C1011E821D8233243A949FE025
:10124000C92ED12CE12CF12C0E9465224B015C01AE
:101250000E94652269837A838B839C830E94652226
:101260002B013C010E9473116093BA017093BB0182
:101270008093BC019093BD010091BE011091BF010C
:101280002091C0013091C101DC01CB01801B910B89
:10129000A20BB30B883C9105A105B10508F45CC015
:1012A000ED81FE81EE0FFF1FE554FD4F30828181FD
:1012B000836081830E9473116093BE017093BF01AC
:1012C0008093C0019093C10169817A818B819C8157
:1012D000A70196010E946E23162FC301B201A70138
:1012E00096010E946E23762EC501B401A7019601D6
:1012F0000E946E23962EA12CB12C012F272D492D53
:10130000B5018D819E810E9464028FEFA81AB80AF0
:101310009AE0A916B10489F7ED81FE813196FE832A
:10132000ED833A97C9F426960FB6F894DEBF0FBE48
:10133000CDBFDF91CF911F910F91FF90EF90DF9084
:10134000CF90BF90AF909F908F907F906F905F9065
:101350004F903F900C942A168D819E810A970CF431
:1013600073CF26960FB6F894DEBF0FBECDBFDF91C8
:10137000CF911F910F91FF90EF90DF90CF90BF9092
:10138000AF909F908F907F906F905F904F903F9025
:10139000089583309105A9F034F48130910549F026
:1013A000029759F008958430910579F0059789F0F6
:1013B00008950E946E030C946E030E94FB080C9427
:1013C000FB080E9461080C9461080E94360B0C9483
:1013D000360B0E94C9110C94C911FC01918D828DAC
:1013E000981761F0828DDF01A80FB11D5D968C9179
:1013F000928D9F5F9F73928F90E008958FEF9FEF84
:101400000895FC01918D828D981731F0828DE80F3F
:10141000F11D858D90E008958FEF9FEF0895FC01F9
:10142000918D228D892F90E0805C9F4F821B9109C6
:101430008F739927089581E494E00E940F0A21E0B8
:10144000892B09F420E0822F0895FC01848DDF01AF
:10145000A80FB11DA35ABF4F2C91848D90E0019627
:101460008F739927848FA689B7892C93A089B18916
:101470008C9180648C93938D848D981306C0028820
:10148000F389E02D80818F7D80830895EF92FF9214
:101490000F931F93CF93DF93EC0181E0888F9B8D97
:1014A0008C8D981305C0E889F989808185FD24C059
:1014B000F62E0B8D10E00F5F1F4F0F731127E02EDC
:1014C0008C8DE8120CC00FB607FCFACFE889F989B9
:1014D000808185FFF5CFCE010E94250AF1CF8B8D4B
:1014E000FE01E80FF11DE35AFF4FF0820B8FEA89EE
:1014F000FB898081806207C0EE89FF896083E8896B
:10150000F98980818064808381E090E0DF91CF91D0
:101510001F910F91FF90EF900895CF93DF93EC010F
:10152000888D8823C9F0EA89FB89808185FD05C003
:10153000A889B9898C9186FD0FC00FB607FCF5CF3D
:10154000808185FFF2CFA889B9898C9185FFEDCF85
:10155000CE010E94250AE7CFDF91CF91089580E068
:1015600090E0892B29F00E941B0A81110C94000045
:1015700008951F920F920FB60F9211242F933F934D
:101580004F935F936F937F938F939F93AF93BF938B
:10159000EF93FF9381E494E00E94250AFF91EF917D
:1015A000BF91AF919F918F917F916F915F914F917B
:1015B0003F912F910F900FBE0F901F9018951F9283
:1015C0000F920FB60F9211242F938F939F93EF9347
:1015D000FF93E0915104F09152048081E09157040F
:1015E000F091580482FD12C0908180915A048F5F5F
:1015F0008F7320915B04821751F0E0915A04F0E060
:10160000EF5BFB4F958F80935A0401C08081FF915F
:10161000EF919F918F912F910F900FBE0F901F9080
:1016200018953FB7F8948091C2019091C301A091A1
:10163000C401B091C50126B5A89B05C02F3F19F084
:101640000196A11DB11D3FBFBA2FA92F982F882742
:10165000820F911DA11DB11DBC01CD0142E0660F9D
:10166000771F881F991F4A95D1F708950F930E94FD
:10167000340100E020E04FE065E070E080E090E0C1
:101680000E94640220E04FE066E070E080E090E0BD
:101690000E94640220E04FE067E070E080E090E0AC
:1016A0000E94640220E04FE068E070E080E090E09B
:1016B0000E94640220E04FE064E070E081E090E08E
:1016C0000E94640220E04FE069E070E081E090E079
:1016D0000E94640220E04FE063E070E082E090E06E
:1016E0000E94640220E04FE069E070E082E090E058
:1016F0000E94640220E04FE062E070E083E090E04E
:101700000E94640220E04FE068E070E083E090E037
:101710000E94640220E04FE061E070E084E090E02D
:101720000E94640220E04FE067E070E084E090E017
:101730000E94640220E04FE061E070E085E090E00C
:101740000E94640220E04FE067E070E085E090E0F6
:101750000E94640220E04FE062E070E086E090E0EA
:101760000E94640220E04FE068E070E086E090E0D4
:101770000E94640220E04FE063E070E087E090E0C8
:101780000E94640220E04FE069E070E087E090E0B2
:101790000E94640220E04FE064E070E088E090E0A6
:1017A0000E94640220E04FE069E070E088E090E091
:1017B0000E94640220E04FE065E070E089E090E084
:1017C0000E94640220E04FE066E070E089E090E073
:1017D0000E94640220E04FE067E070E089E090E062
:1017E0000E94640220E04FE068E070E089E090E051
:1017F0000E9464020E942A1620E04FE065E070E03B
:1018000080E090E00E94640220E04FE066E070E03B
:1018100080E090E00E94640220E04FE067E070E02A
:1018200080E090E00E94640220E04FE068E070E019
:1018300080E090E00E94640220E04FE064E070E00D
:1018400081E090E00E94640206E026E04FE065E05F
:1018500070E081E090E00E94640226E04FE066E0E4
:1018600070E081E090E00E94640226E04FE067E0D3
:1018700070E081E090E00E94640226E04FE068E0C2
:1018800070E081E090E00E94640200E020E04FE020
:1018900069E070E081E090E00E94640220E04FE0A7
:1018A00063E070E082E090E00E94640206E026E0DF
:1018B0004FE064E070E082E090E00E94640226E085
:1018C0004FE068E070E082E090E00E94640200E097
:1018D00020E04FE069E070E082E090E00E94640266
:1018E00020E04FE062E070E083E090E00E9464025C
:1018F00006E026E04FE063E070E083E090E00E94C5
:10190000640226E04FE067E070E083E090E00E9430
:10191000640200E020E04FE068E070E083E090E0E7
:101920000E94640220E04FE061E070E084E090E01B
:101930000E94640206E026E04FE062E070E084E08E
:1019400090E00E94640226E04FE066E070E084E0F0
:1019500090E00E94640200E020E04FE067E070E069
:1019600084E090E00E94640220E04FE061E070E0DB
:1019700085E090E00E94640206E026E04FE062E02D
:1019800070E085E090E00E94640226E04FE066E0AF
:1019900070E085E090E00E94640200E020E04FE00B
:1019A00067E070E085E090E00E94640220E04FE094
:1019B00062E070E086E090E00E94640206E026E0CB
:1019C0004FE063E070E086E090E00E94640226E071
:1019D0004FE067E070E086E090E00E94640200E083
:1019E00020E04FE068E070E086E090E00E94640252
:1019F00020E04FE063E070E087E090E00E94640246
:101A000006E026E04FE064E070E087E090E00E94AE
:101A1000640226E04FE068E070E087E090E00E941A
:101A2000640200E020E04FE069E070E087E090E0D1
:101A30000E94640220E04FE064E070E088E090E003
:101A40000E94640206E026E04FE065E070E088E076
:101A500090E00E94640226E04FE066E070E088E0DB
:101A600090E00E94640226E04FE067E070E088E0CA
:101A700090E00E94640226E04FE068E070E088E0B9
:101A800090E00E94640200E020E04FE069E070E036
:101A900088E090E00E94640220E04FE065E070E0A2
:101AA00089E090E00E94640220E04FE066E070E090
:101AB00089E090E00E94640220E04FE067E070E07F
:101AC00089E090E00E94640220E04FE068E070E06E
:101AD00089E090E00E9464020E942A1620E04FE014
:101AE00065E070E080E090E00E94640220E04FE05A
:101AF00066E070E080E090E00E94640220E04FE049
:101B000067E070E080E090E00E94640220E04FE037
:101B100068E070E080E090E00E94640220E04FE026
:101B200064E070E081E090E00E94640206E026E05C
:101B30004FE065E070E081E090E00E94640226E002
:101B40004FE066E070E081E090E00E94640226E0F1
:101B50004FE067E070E081E090E00E94640226E0E0
:101B60004FE068E070E081E090E00E94640200E0F5
:101B700020E04FE069E070E081E090E00E946402C4
:101B800020E04FE063E070E082E090E00E946402B9
:101B900006E026E04FE064E070E082E090E00E9422
:101BA000640200E020E047E065E070E082E090E061
:101BB0000E94640220E047E066E070E082E090E08E
:101BC0000E94640220E047E067E070E082E090E07D
:101BD0000E94640206E026E04FE068E070E082E0E8
:101BE00090E00E94640200E020E04FE069E070E0D5
:101BF00082E090E00E94640220E04FE062E070E04A
:101C000083E090E00E94640206E026E04FE063E09B
:101C100070E083E090E00E94640200E020E047E092
:101C200064E070E083E090E00E94640220E047E01E
:101C300066E070E083E090E00E94640206E026E047
:101C40004FE067E070E083E090E00E94640200E013
:101C500020E04FE068E070E083E090E00E946402E2
:101C600020E04FE061E070E084E090E00E946402D8
:101C700006E026E04FE062E070E084E090E00E9441
:101C8000640200E020E047E063E070E084E090E080
:101C90000E94640220E047E065E070E084E090E0AC
:101CA0000E94640206E026E04FE066E070E084E017
:101CB00090E00E94640200E020E04FE067E070E006
:101CC00084E090E00E94640220E04FE061E070E078
:101CD00085E090E00E94640206E026E04FE062E0CA
:101CE00070E085E090E00E94640200E020E047E0C0
:101CF00063E070E085E090E00E94640220E047E04D
:101D000065E070E085E090E00E94640206E026E075
:101D10004FE066E070E085E090E00E94640200E041
:101D200020E04FE067E070E085E090E00E94640210
:101D300020E04FE062E070E086E090E00E94640204
:101D400006E026E04FE063E070E086E090E00E946D
:101D5000640200E020E047E064E070E086E090E0AC
:101D60000E94640220E047E066E070E086E090E0D8
:101D70000E94640206E026E04FE067E070E086E043
:101D800090E00E94640200E020E04FE068E070E034
:101D900086E090E00E94640220E04FE063E070E0A3
:101DA00087E090E00E94640206E026E04FE064E0F5
:101DB00070E087E090E00E94640200E020E047E0ED
:101DC00065E070E087E090E00E94640220E047E078
:101DD00066E070E087E090E00E94640220E047E067
:101DE00067E070E087E090E00E94640206E026E091
:101DF0004FE068E070E087E090E00E94640200E05D
:101E000020E04FE069E070E087E090E00E9464022B
:101E100020E04FE064E070E088E090E00E9464021F
:101E200006E026E04FE065E070E088E090E00E9488
:101E3000640226E04FE066E070E088E090E00E94F7
:101E4000640226E04FE067E070E088E090E00E94E6
:101E5000640226E04FE068E070E088E090E00E94D5
:101E6000640200E020E04FE069E070E088E090E08C
:101E70000E94640220E04FE065E070E089E090E0BD
:101E80000E94640220E04FE066E070E089E090E0AC
:101E90000E94640220E04FE067E070E089E090E09B
:101EA0000E94640220E04FE068E070E089E090E08A
:101EB0000E9464020E942A1620E04FE065E070E074
:101EC00080E090E00E94640220E04FE066E070E075
:101ED00080E090E00E94640220E04FE067E070E064
:101EE00080E090E00E94640220E04FE068E070E053
:101EF00080E090E00E94640220E04FE064E070E047
:101F000081E090E00E94640206E026E04FE065E098
:101F100070E081E090E00E94640226E04FE066E01D
:101F200070E081E090E00E94640226E04FE067E00C
:101F300070E081E090E00E94640226E04FE068E0FB
:101F400070E081E090E00E94640200E020E04FE059
:101F500069E070E081E090E00E94640220E04FE0E0
:101F600063E070E082E090E00E94640206E026E018
:101F70004FE064E070E082E090E00E94640200E0E4
:101F800020E047E065E070E082E090E00E946402BB
:101F900020E047E066E070E082E090E00E946402AA
:101FA00020E047E067E070E082E090E00E94640299
:101FB00006E026E04FE068E070E082E090E00E94FA
:101FC000640200E020E04FE069E070E082E090E031
:101FD0000E94640220E04FE062E070E083E090E065
:101FE0000E94640206E026E04FE063E070E083E0D8
:101FF00090E00E94640200E020E047E064E070E0CE
:1020000083E090E00E9464020AE024E042E065E0A0
:1020100070E083E090E00E94640200E020E047E08E
:1020200066E070E083E090E00E94640206E026E053
:102030004FE067E070E083E090E00E94640200E01F
:1020400020E04FE068E070E083E090E00E946402EE
:1020500020E04FE061E070E084E090E00E946402E4
:1020600006E026E04FE062E070E084E090E00E944D
:10207000640200E020E047E063E070E084E090E08C
:102080000E9464020AE024E042E064E070E084E040
:1020900090E00E94640200E020E047E065E070E02C
:1020A00084E090E00E94640206E026E04FE066E0F3
:1020B00070E084E090E00E94640200E020E04FE0E5
:1020C00067E070E084E090E00E94640220E04FE06E
:1020D00061E070E085E090E00E94640206E026E0A6
:1020E0004FE062E070E085E090E00E94640200E072
:1020F00020E047E063E070E085E090E00E94640249
:102100000AE024E042E064E070E085E090E00E94B4
:10211000640200E020E047E065E070E085E090E0E8
:102120000E94640206E026E04FE066E070E085E091
:1021300090E00E94640200E020E04FE067E070E081
:1021400085E090E00E94640220E04FE062E070E0F1
:1021500086E090E00E94640206E026E04FE063E043
:1021600070E086E090E00E94640200E020E047E03A
:1021700064E070E086E090E00E9464020AE024E0FF
:1021800042E065E070E086E090E00E94640200E0DA
:1021900020E047E066E070E086E090E00E946402A4
:1021A00006E026E04FE067E070E086E090E00E9405
:1021B000640200E020E04FE068E070E086E090E03C
:1021C0000E94640220E04FE063E070E087E090E06E
:1021D0000E94640206E026E04FE064E070E087E0E1
:1021E00090E00E94640200E020E047E065E070E0DB
:1021F00087E090E00E94640220E047E066E070E043
:1022000087E090E00E94640220E047E067E070E031
:1022100087E090E00E94640206E026E04FE068E07C
:1022200070E087E090E00E94640200E020E04FE070
:1022300069E070E087E090E00E94640220E04FE0F7
:1022400064E070E088E090E00E94640206E026E02E
:102250004FE065E070E088E090E00E94640226E0D4
:102260004FE066E070E088E090E00E94640226E0C3
:102270004FE067E070E088E090E00E94640226E0B2
:102280004FE068E070E088E090E00E94640200E0C7
:1022900020E04FE069E070E088E090E00E94640296
:1022A00020E04FE065E070E089E090E00E94640289
:1022B00020E04FE066E070E089E090E00E94640278
:1022C00020E04FE067E070E089E090E00E94640267
:1022D00020E04FE068E070E089E090E00E94640256
:1022E0000F910C942A162FB7F894609111037091F6
:1022F000120380911303909114032FBF08951F922E
:102300000F920FB60F9211242F933F938F939F93A9
:10231000AF93BF938091110390911203A091130387
:10232000B09114033091100323E0230F2D3720F4D4
:102330000196A11DB11D05C026E8230F0296A11D1F
:10234000B11D209310038093110390931203A09367
:102350001303B09314038091C2019091C301A09123
:10236000C401B091C5010196A11DB11D8093C201A8
:102370009093C301A093C401B093C501BF91AF91E5
:102380009F918F913F912F910F900FBE0F901F90B3
:1023900018950F930E94340100E029E045E060E0C9
:1023A00070E082E090E00E94640229E045E064E091
:1023B00070E082E090E00E94640229E045E065E080
:1023C00070E082E090E00E94640229E045E066E06F
:1023D00070E082E090E00E94640229E045E067E05E
:1023E00070E082E090E00E94640229E045E060E055
:1023F00070E083E090E00E94640229E045E064E040
:1024000070E083E090E00E94640229E045E068E02B
:1024100070E083E090E00E94640229E045E060E023
:1024200070E084E090E00E94640229E045E064E00E
:1024300070E084E090E00E94640229E045E068E0FA
:1024400070E084E090E00E94640229E045E060E0F2
:1024500070E085E090E00E94640229E045E064E0DD
:1024600070E085E090E00E94640229E045E068E0C9
:1024700070E085E090E00E94640229E045E060E0C1
:1024800070E086E090E00E94640229E045E064E0AC
:1024900070E086E090E00E94640229E045E068E098
:1024A00070E086E090E00E94640229E045E060E090
:1024B00070E087E090E00E94640229E045E063E07C
:1024C00070E087E090E00E94640229E045E064E06B
:1024D00070E087E090E00E94640229E045E068E057
:1024E00070E087E090E00E94640229E045E061E04E
:1024F00070E088E090E00E94640229E045E062E03C
:1025000070E088E090E00E94640229E045E063E02A
:1025100070E088E090E00E94640229E045E068E015
:1025200070E088E090E00E9464020E942A1605E0B4
:1025300028E04CE060E070E080E090E00E946402FF
:1025400028E04CE061E070E080E090E00E946402EE
:1025500028E04CE062E070E080E090E00E946402DD
:1025600028E04CE063E070E080E090E00E946402CC
:1025700028E04CE064E070E081E090E00E946402BA
:1025800028E04CE065E070E081E090E00E946402A9
:1025900023E04CE064E070E082E090E00E9464029E
:1025A00028E04CE066E070E082E090E00E94640287
:1025B00028E04CE067E070E082E090E00E94640276
:1025C00023E04CE064E070E083E090E00E9464026D
:1025D00028E04CE068E070E083E090E00E94640254
:1025E00023E04CE064E070E084E090E00E9464024C
:1025F00028E04CE069E070E084E090E00E94640232
:1026000023E04CE064E070E085E090E00E9464022A
:1026100028E04CE069E070E085E090E00E94640210
:1026200023E04CE064E070E086E090E00E94640209
:1026300028E04CE068E070E086E090E00E946402F0
:1026400023E04CE064E070E087E090E00E946402E8
:1026500028E04CE066E070E087E090E00E946402D1
:1026600028E04CE067E070E087E090E00E946402C0
:1026700028E04CE064E070E088E090E00E946402B2
:1026800028E04CE065E070E088E090E00E946402A1
:1026900028E04CE060E070E089E090E00E94640295
:1026A00028E04CE061E070E089E090E00E94640284
:1026B00028E04CE062E070E089E090E00E94640273
:1026C00028E04CE063E070E089E090E00E94640262
:1026D0000E942A1623E049E060E070E080E090E08C
:1026E0000E94640223E049E061E070E080E090E055
:1026F0000E94640223E049E062E070E080E090E044
:102700000E94640223E049E063E070E080E090E032
:102710000E94640223E049E064E070E081E090E020
:102720000E94640223E049E065E070E081E090E00F
:102730000E94640223E049E066E070E081E090E0FE
:102740000E94640223E049E067E070E081E090E0ED
:102750000E94640223E049E067E070E082E090E0DC
:102760000E94640223E049E068E070E082E090E0CB
:102770000E94640223E049E064E070E083E090E0BE
:102780000E94640223E049E065E070E083E090E0AD
:102790000E94640223E049E066E070E083E090E09C
:1027A0000E94640223E049E067E070E083E090E08B
:1027B0000E94640223E049E060E070E084E090E081
:1027C0000E94640223E049E061E070E084E090E070
:1027D0000E94640223E049E062E070E084E090E05F
:1027E0000E94640223E049E063E070E084E090E04E
:1027F0000E94640223E049E064E070E084E090E03D
:102800000E94640223E049E065E070E085E090E02A
:102810000E94640223E049E066E070E085E090E019
:102820000E94640223E049E067E070E085E090E008
:102830000E94640223E049E067E070E086E090E0F7
:102840000E94640223E049E068E070E086E090E0E6
:102850000E94640223E049E065E070E087E090E0D8
:102860000E94640223E049E066E070E087E090E0C7
:102870000E94640223E049E067E070E087E090E0B6
:102880000E94640223E049E060E070E088E090E0AC
:102890000E94640223E049E061E070E088E090E09B
:1028A0000E94640223E049E062E070E088E090E08A
:1028B0000E94640223E049E063E070E088E090E079
:1028C0000E94640223E049E064E070E088E090E068
:1028D0000E94640223E049E065E070E088E090E057
:1028E0000E9464020E942A162BE043E060E070E040
:1028F00082E090E00E9464022BE043E061E070E03F
:1029000082E090E00E9464022BE043E062E070E02D
:1029100082E090E00E9464022BE043E063E070E01C
:1029200082E090E00E9464022BE043E064E070E00B
:1029300082E090E00E9464022BE043E065E070E0FA
:1029400082E090E00E9464022BE043E066E070E0E9
:1029500082E090E00E9464022BE043E067E070E0D8
:1029600082E090E00E9464022BE043E068E070E0C7
:1029700082E090E00E9464022BE043E060E070E0BF
:1029800083E090E00E9464022BE043E064E070E0AA
:1029900083E090E00E9464022BE043E068E070E096
:1029A00083E090E00E9464022BE043E060E070E08E
:1029B00084E090E00E9464022BE043E064E070E079
:1029C00084E090E00E9464022BE043E068E070E065
:1029D00084E090E00E9464022BE043E060E070E05D
:1029E00085E090E00E9464022BE043E064E070E048
:1029F00085E090E00E9464022BE043E068E070E034
:102A000085E090E00E9464022BE043E060E070E02B
:102A100086E090E00E9464022BE043E064E070E016
:102A200086E090E00E9464022BE043E068E070E002
:102A300086E090E00E9464022BE043E060E070E0FA
:102A400087E090E00E9464022BE043E064E070E0E5
:102A500087E090E00E9464022BE043E068E070E0D1
:102A600087E090E00E9464022BE043E060E070E0C9
:102A700088E090E00E9464022BE043E068E070E0B0
:102A800088E090E00E9464020E942A160FE027E08E
:102A90004FE060E070E082E090E00E94640227E096
:102AA0004FE061E070E082E090E00E94640227E085
:102AB0004FE062E070E082E090E00E94640227E074
:102AC0004FE063E070E082E090E00E94640227E063
:102AD0004FE064E070E082E090E00E94640227E052
:102AE0004FE065E070E082E090E00E94640227E041
:102AF0004FE066E070E082E090E00E94640227E030
:102B00004FE067E070E082E090E00E94640227E01E
:102B10004FE068E070E082E090E00E94640227E00D
:102B20004FE064E070E083E090E00E94640227E000
:102B30004FE068E070E083E090E00E94640227E0EC
:102B40004FE064E070E084E090E00E94640227E0DF
:102B50004FE065E070E084E090E00E94640227E0CE
:102B60004FE068E070E084E090E00E94640227E0BB
:102B70004FE062E070E085E090E00E94640227E0B0
:102B80004FE063E070E085E090E00E94640227E09F
:102B90004FE065E070E085E090E00E94640227E08D
:102BA0004FE068E070E085E090E00E94640227E07A
:102BB0004FE061E070E086E090E00E94640227E070
:102BC0004FE065E070E086E090E00E94640227E05C
:102BD0004FE068E070E086E090E00E94640227E049
:102BE0004FE060E070E087E090E00E94640227E040
:102BF0004FE061E070E087E090E00E94640227E02F
:102C00004FE065E070E087E090E00E94640227E01A
:102C10004FE066E070E087E090E00E94640227E009
:102C20004FE067E070E087E090E00E94640227E0F8
:102C30004FE068E070E087E090E00E94640227E0E7
:102C40004FE060E070E088E090E00E9464020F9145
:102C50000C942A164F925F926F927F928F929F925E
:102C6000AF92BF92EF92FF920F931F93CF93DF9398
:102C70002AE0E22EF12CB7010F2C000C880B990BE7
:102C80000E94752220E030E040E251E40E940824D6
:102C90002B013C0185E1A82E83E0B82E8501812C13
:102CA000912CE801C80DD91D6A8170E080E090E0A8
:102CB0000E947522A30192010E94B0220E947A24F0
:102CC0006A83688170E080E090E00E947522A30131
:102CD00092010E94B0220E947A246883698170E088
:102CE00080E090E00E947522A30192010E94B02230
:102CF0000E947A24698323E0820E911C8EE188165B
:102D0000910479F6025E1F4F24E00134120739F670
:102D1000812C912C612C712CC0E0D0E0F501E60DE6
:102D2000F71D008121814281BE01C4010E9464021D
:102D3000219683E0680E711CCA30D10579F72FEF18
:102D4000821A920A8EE1A80EB11C2AE08216910422
:102D500009F70E94110B2B013C0194E1892E912C63
:102D6000A12CB12C0E94110BDC01CB018419950917
:102D7000A609B709883E9340A105B10558F081E046
:102D8000881A9108A108B10828EE420E23E0521ECD
:102D9000611C711C81149104A104B10419F781E034
:102DA000E81AF10809F067CFDF91CF911F910F91D9
:102DB000FF90EF90BF90AF909F908F907F906F901B
:102DC0005F904F9008950F930E94340100E026E039
:102DD00042E064E070E081E090E00E94640226E05E
:102DE00042E065E070E081E090E00E94640226E04D
:102DF00042E066E070E081E090E00E94640226E03C
:102E000042E063E070E082E090E00E94640226E02D
:102E100042E067E070E082E090E00E94640226E019
:102E200041E063E070E083E090E00E94640226E00D
:102E300042E067E070E083E090E00E9464020FE00F
:102E400029E047E063E070E084E090E00E946402E3
:102E500029E047E064E070E084E090E00E946402D2
:102E600029E047E065E070E084E090E00E946402C1
:102E700029E047E066E070E084E090E00E946402B0
:102E800029E047E064E070E085E090E00E946402A1
:102E900029E047E067E070E085E090E00E9464028E
:102EA00029E047E063E070E086E090E00E94640281
:102EB00029E047E064E070E086E090E00E94640270
:102EC00029E047E065E070E086E090E00E9464025F
:102ED00029E047E066E070E086E090E00E9464024E
:102EE00000E026E04EE063E070E087E090E00E94C2
:102EF000640226E04EE064E070E087E090E00E942B
:102F0000640226E04EE065E070E087E090E00E9419
:102F1000640226E04EE066E070E087E090E00E9408
:102F2000640226E04EE067E070E087E090E00E94F7
:102F3000640226E04EE063E070E088E090E00E94EA
:102F4000640226E04EE063E070E089E090E00E94D9
:102F500064020E942A1626E042E064E070E081E00C
:102F600090E00E94640226E042E065E070E081E0CB
:102F700090E00E94640226E042E066E070E081E0BA
:102F800090E00E94640226E042E063E070E082E0AC
:102F900090E00E94640226E042E067E070E082E098
:102FA00090E00E94640226E041E063E070E083E08C
:102FB00090E00E94640226E042E067E070E083E077
:102FC00090E00E9464020FE029E047E063E070E0D7
:102FD00084E090E00E94640229E047E064E070E051
:102FE00084E090E00E94640229E047E065E070E040
:102FF00084E090E00E94640229E047E066E070E02F
:1030000084E090E00E94640229E047E064E070E020
:1030100085E090E00E94640229E047E067E070E00C
:1030200085E090E00E94640229E047E063E070E000
:1030300086E090E00E94640229E047E064E070E0EE
:1030400086E090E00E94640229E047E065E070E0DD
:1030500086E090E00E94640229E047E066E070E0CC
:1030600086E090E00E94640200E026E04EE063E02B
:1030700070E087E090E00E94640226E04EE064E0A9
:1030800070E087E090E00E94640226E04EE065E098
:1030900070E087E090E00E94640226E04EE066E087
:1030A00070E087E090E00E94640226E04EE067E076
:1030B00070E087E090E00E94640226E04EE063E06A
:1030C00070E088E090E00E94640226E04EE063E059
:1030D00070E089E090E00E9464020E942A1606E0F7
:1030E00025E04DE060E070E081E090E00E94640245
:1030F00025E04DE062E070E081E090E00E94640233
:1031000025E04DE063E070E081E090E00E94640221
:1031100025E04DE064E070E081E090E00E94640210
:103120000DE02FE04DE066E070E081E090E00E946D
:1031300064022FE04DE067E070E081E090E00E94E3
:1031400064022FE04DE068E070E081E090E00E94D2
:1031500064022FE04DE069E070E081E090E00E94C1
:10316000640206E025E04DE060E070E082E090E07F
:103170000E94640225E04DE062E070E082E090E0B1
:103180000E94640225E04DE064E070E082E090E09F
:103190000E9464020DE02FE04DE069E070E082E003
:1031A00090E00E94640206E025E04DE060E070E0FF
:1031B00083E090E00E94640225E04DE061E070E071
:1031C00083E090E00E94640225E04DE062E070E060
:1031D00083E090E00E94640225E04DE064E070E04E
:1031E00083E090E00E9464020DE02FE04DE066E095
:1031F00070E083E090E00E9464022FE04DE067E021
:1032000070E083E090E00E9464022FE04DE068E00F
:1032100070E083E090E00E9464022FE04DE069E0FE
:1032200070E084E090E00E94640202E025E04DE05E
:1032300060E070E085E090E00E94640225E04DE0EF
:1032400062E070E085E090E00E94640225E04DE0DD
:1032500063E070E085E090E00E94640225E04DE0CC
:1032600064E070E085E090E00E9464020DE02FE0F1
:103270004DE066E070E085E090E00E9464022FE09F
:103280004DE067E070E085E090E00E9464022FE08E
:103290004DE068E070E085E090E00E9464022FE07D
:1032A0004DE069E070E085E090E00E94640202E099
:1032B00025E04DE060E070E086E090E00E9464026E
:1032C00025E04DE062E070E086E090E00E9464025C
:1032D00025E04DE064E070E086E090E00E9464024A
:1032E00025E04DE060E070E087E090E00E9464023D
:1032F00025E04DE061E070E087E090E00E9464022C
:1033000025E04DE062E070E087E090E00E9464021A
:1033100025E04DE064E070E087E090E00E94640208
:103320000DE025E04DE066E070E088E090E00E946E
:10333000640225E04DE067E070E088E090E00E94E4
:10334000640225E04DE068E070E088E090E00E94D3
:10335000640225E04DE069E070E088E090E00E94C2
:1033600064020E942A1606E025E04DE060E070E06D
:1033700081E090E00E94640225E04DE062E070E0B0
:1033800081E090E00E94640225E04DE063E070E09F
:1033900081E090E00E94640225E04DE064E070E08E
:1033A00081E090E00E9464020DE02FE04DE066E0D5
:1033B00070E081E090E00E9464022FE04DE067E061
:1033C00070E081E090E00E9464022FE04DE068E050
:1033D00070E081E090E00E9464022FE04DE069E03F
:1033E00070E081E090E00E94640206E025E04DE09C
:1033F00060E070E082E090E00E94640225E04DE031
:1034000062E070E082E090E00E94640225E04DE01E
:1034100064E070E082E090E00E9464020DE02FE042
:103420004DE069E070E082E090E00E94640206E016
:1034300025E04DE060E070E083E090E00E946402EF
:1034400025E04DE061E070E083E090E00E946402DE
:1034500025E04DE062E070E083E090E00E946402CD
:1034600025E04DE064E070E083E090E00E946402BB
:103470000DE02FE04DE066E070E083E090E00E9418
:1034800064022FE04DE067E070E083E090E00E948E
:1034900064022FE04DE068E070E083E090E00E947D
:1034A00064022FE04DE069E070E084E090E00E946B
:1034B000640202E025E04DE060E070E085E090E02D
:1034C0000E94640225E04DE062E070E085E090E05B
:1034D0000E94640225E04DE063E070E085E090E04A
:1034E0000E94640225E04DE064E070E085E090E039
:1034F0000E9464020DE02FE04DE066E070E085E0A0
:1035000090E00E9464022FE04DE067E070E085E00B
:1035100090E00E9464022FE04DE068E070E085E0FA
:1035200090E00E9464022FE04DE069E070E085E0E9
:1035300090E00E94640202E025E04DE060E070E06F
:1035400086E090E00E94640225E04DE062E070E0D9
:1035500086E090E00E94640225E04DE064E070E0C7
:1035600086E090E00E94640225E04DE060E070E0BB
:1035700087E090E00E94640225E04DE061E070E0A9
:1035800087E090E00E94640225E04DE062E070E098
:1035900087E090E00E94640225E04DE064E070E086
:1035A00087E090E00E9464020DE025E04DE066E0D7
:1035B00070E088E090E00E94640225E04DE067E062
:1035C00070E088E090E00E94640225E04DE068E051
:1035D00070E088E090E00E94640225E04DE069E040
:1035E00070E088E090E00E9464020F910C942A162B
:1035F0000895CF92DF92EF92FF920F931F93CF9394
:10360000DF936C017A018B01C0E0D0E0CE15DF05BD
:1036100089F0D8016D918D01D601ED91FC91019059
:10362000F081E02DC6010995892B11F47E0102C0BD
:103630002196ECCFC701DF91CF911F910F91FF90A1
:10364000EF90DF90CF9008950E94AD26009769F02B
:10365000FC0101900020E9F73197AF01481B590B9D
:10366000BC0181E494E00C94F91A80E090E00895A4
:10367000CF93DF930E94261BEC0184EA91E00E9425
:10368000261B8C0F9D1FDF91CF9108958F929F92E3
:10369000AF92BF920F931F93CF93DF93CDB7DEB757
:1036A000A1970FB6F894DEBF0FBECDBF19A242306E
:1036B00008F44AE08E010F5D1F4F842E912CA12C3F
:1036C000B12CA50194010E94D723E62FB901CA01AC
:1036D00001501109EA3014F4E05D01C0E95CD80141
:1036E000EC93232B242B252B61F7C8010E94261B6A
:1036F000A1960FB6F894DEBF0FBECDBFDF91CF917C
:103700001F910F91BF90AF909F908F900895CF938E
:10371000DF93BC0180E090E042E00E94461BEC0198
:1037200084EA91E00E94261B8C0F9D1FDF91CF91B0
:10373000089590E0FC01EC55FF4F2491FC01E05707
:10374000FF4F8491882399F090E0880F991FFC0126
:10375000EA57FF4FA591B491FC01E458FF4F8591C2
:1037600094918FB7F894EC91E22BEC938FBF08956E
:10377000FC018091E2049091E304892B21F421E083
:10378000309749F413C08091DE049091DF043097A4
:1037900031F421E0FC018081882341F006C0BF01A3
:1037A0000E94BB2621E0892B09F020E0822F08959A
:1037B0000F931F930E9473116093490470934A04FE
:1037C00080934B0490934C04E0914104F0914204A7
:1037D0000680F781E02D81E494E0099597FF1FC0F2
:1037E0000E9473110091490410914A0420914B04E6
:1037F00030914C04DC01CB01801B910BA20BB30B6D
:1038000000914504109146042091470430914804EA
:1038100080179107A207B307B8F28FEF9FEF1F91B0
:103820000F9108950F931F93CF93DF93EC0188813D
:103830009981009729F02A813B812617370788F460
:103840008B016F5F7F4F0E94E325009761F09983A2
:1038500088831B830A832C813D81232B11F4FC0177
:10386000108281E001C080E0DF91CF911F910F9124
:103870000895EF92FF920F931F93CF93DF93EC0184
:103880007B018A01BA010E94121C288139818111B1
:103890000DC02115310519F0C9010E944B2519826F
:1038A00018821D821C821B821A8206C01D830C8313
:1038B000B701C9010E94C426CE01DF91CF911F91AB
:1038C0000F91FF90EF900895CF93DF93CDB7DEB7C0
:1038D00028970FB6F894DEBF0FBECDBF789484B59D
:1038E000826084BD84B5816084BD85B5826085BDFC
:1038F00085B5816085BD80916E00816080936E008A
:10390000109281008091810082608093810080917B
:10391000810081608093810080918000816080932C
:1039200080008091B10084608093B1008091B000EC
:1039300081608093B00080917A00846080937A00E7
:1039400080917A00826080937A0080917A00816011
:1039500080937A0080917A00806880937A00109238
:10396000C1008CB58F7D8CBD8CB5837F8CBD8CB533
:103970008C7F8CBD8DB581608DBDF89410928000D8
:103980008BE08093810082E080936F008AE090E07A
:10399000909389008093880082E00E94991B8BE0BD
:1039A0000E94991B8DE00E94991B84E00E94991B44
:1039B0001FB7F89480910303811163C08AE990E0F6
:1039C000FC0124914EEA50E0FA01649130E0220FAC
:1039D000331F2A573F4FF901A591B4912C916223CF
:1039E00009F040C0E2E7F0E02491FA014491FC01C3
:1039F00094919923B9F1222339F1233091F038F4CD
:103A00002130A9F0223001F584B58F7D12C0273016
:103A100091F02830A1F02430B9F4809180008F7D9E
:103A200003C0809180008F77809380000DC084B5A3
:103A30008F7784BD09C08091B0008F7703C08091DB
:103A4000B0008F7D8093B000E92FF0E0EE0FFF1FF4
:103A5000E458FF4FA591B4918FB7F8949C91492BEE
:103A60004C938FBF8AE00E94991B8CB580618CBDFE
:103A70008CB580648CBD8DE00E94991B8BE00E9408
:103A8000991B809103038F5F809303031FBF84E41E
:103A900080937C0080917A00806480937A0080918A
:103AA0007A0086FDFCCF609178008091790070E00B
:103AB000782B072E000C880B990B61157105810579
:103AC000910511F00E946A220E940B01E0915104BD
:103AD000F091520482E08083E0914D04F0914E0415
:103AE0001082E0914F04F09150048FEC808310928B
:103AF0005904E0915504F091560486E08083E091EA
:103B00005304F0915404808180618083E0915304D8
:103B1000F0915404808188608083E0915304F09197
:103B20005404808180688083E0915304F0915404B0
:103B300080818F7D80830E9434018BE391E00E941D
:103B4000381B00E010E0E12CF12C6801CC0CDD1CEE
:103B5000CC0CDD1CF601EE0DFF1DEE0FFF1FEA5928
:103B6000FD4F9181808193700E94871BFFEFEF1AB8
:103B7000FF0A24E0E216F10469F70F5F1F4F0A30D5
:103B8000110509F78FE391E00E94381B00E010E077
:103B9000E12CF12C6801CC0CDD1CCC0CDD1CF601F9
:103BA000EE0DFF1DEE0FFF1FEA5EFD4F918180813C
:103BB00093700E94871B3FEFE31AF30A84E0E81634
:103BC000F10469F70F5F1F4F0A30110509F784E40C
:103BD00091E00E94381B00E010E0E12CF12C68011C
:103BE000CC0CDD1CCC0CDD1CF601EE0DFF1DEE0F28
:103BF000FF1FEA53FE4F9181808193700E94871BC3
:103C00009FEFE91AF90AA4E0EA16F10469F70F5FD9
:103C10001F4F0A30110509F78AE491E00E94381B12
:103C2000789422242394312C44244394512CA7E0EB
:103C30008A2E912CA12CB12C1A8219821C821B82F3
:103C40001E821D8240E050E066EA71E0CE010196DE
:103C50000E94391C0E94D81B97FD1EC08A30910516
:103C6000D9F08F8318860D811E810F5F1F4FB80119
:103C7000CE0101960E94121C882361F329813A81AA
:103C80008D819E81BE01695F7F4F820F931F0E94CD
:103C9000C4261E830D83DECF8091DE049091DF0465
:103CA000009789F069817A816115710551F0409121
:103CB000E0045091E1042D813E814217530708F042
:103CC0006CC30E944B2589819A819093DF04809375
:103CD000DE048B819C819093E1048093E0048D81CC
:103CE0009E819093E3048093E2041A8219821C82DD
:103CF0001B821E821D8289819A810E944B258EE43F
:103D000091E00E94B81B882339F08EE491E00E9474
:103D1000381B82E090E024C083E591E00E94B81B4C
:103D2000882339F00E94340110920F0310920E0381
:103D30002AC088E591E00E94B81B882339F00E94D0
:103D4000340150920F0340920E031DC08EE591E0A6
:103D50000E94B81B882349F00E94340183E090E060
:103D600090930F0380930E030EC084E691E00E94AF
:103D7000B81B882341F00E943401E4E0F0E0F093A6
:103D80000F03E0930E03E0900E03F0900F03F1E0B9
:103D9000EF16F10479F01CF4EF28B9F1FBC232E020
:103DA000E316F10409F487C283E0E816F10409F48C
:103DB000B2C2F0C262E070E082E090E00E94460190
:103DC0008091B6029091B70290930503809304030B
:103DD00062E070E083E090E00E9446010E9473116F
:103DE00060930A0370930B0380930C0390930D036D
:103DF0000E94731160930603709307038093080376
:103E00009093090310920C018EC08AE691E00E9403
:103E1000B81B8823A9F08091010390910203FC0153
:103E2000EE0FFF1FE153FD4F22E030E0318320838E
:103E30000196909302038093010383E791E018C0F9
:103E40008FE791E00E94B81B8823B9F080910103AD
:103E500090910203FC01EE0FFF1FE153FD4F118211
:103E600010820196909302038093010388E891E009
:103E70000E94381B0E949B078DC284E991E00E943A
:103E8000B81B882399F08091010390910203FC01F3
:103E9000EE0FFF1FE153FD4F318220820196909378
:103EA00002038093010388E991E0E2CF8FE991E07A
:103EB0000E94B81B882309F46DC20E94E3160E9479
:103EC000E3160E94E3160E94E3160E94E3160E9486
:103ED000E3160E94E3160E94E3160E943401CACF43
:103EE00087379105E1F580910801909109010297CA
:103EF00031F0A1E0B0E0B0930B01A0930A018091F2
:103F00000A0390910B03A0910C03B0910D03B7012C
:103F1000A601481B590B6A0B7B0B403451406105CD
:103F2000710508F04FC070900C017110BFC10E9464
:103F300073116B017C0160930603709307038093F8
:103F400008039093090381E494E00E94ED0981370E
:103F5000910531F610920F0310920E03A7C183371B
:103F6000910569F48091080190910901019739F256
:103F7000E2E0F0E0F0930B01E0930A01C0CF843659
:103F8000910571F48091080190910901049709F459
:103F9000B6CF23E030E030930B0120930A01AFCF7E
:103FA0008136910509F0ABCF80910801909109010C
:103FB000039709F4A4CF84E090E090930B018093E1
:103FC0000A019DCF20910A0130910B013093090124
:103FD00020930801A091B602B091B7028D919C91F7
:103FE000119712966D917C9113972130310519F438
:103FF000615071090FC02230310519F46F5F7F4F96
:1040000009C02330310511F4019704C02430310573
:1040100009F401968B30910534F4181619062CF02A
:104020008AE090E002C081E090E06B30710534F4EA
:10403000161617062CF06AE070E002C061E070E02E
:104040000091040310910503F801309781F020815D
:1040500031818217930729F4228133816217730714
:1040600021F00480F581E02DF0CF772473947092D5
:104070000C01711086C0209100013091010182175E
:10408000930709F069C02091020130910301621782
:10409000730709F061C00E9446010E946522A501D4
:1040A00094010E946E236F5F7F4F709301016093B4
:1040B00000010E946522A50194010E946E236F5F9A
:1040C0007F4F7093030160930201C0900001D09074
:1040D00001010D2C000CEE08FF08F7FE14C0E09162
:1040E0004104F09142040190F081E02D6DE281E401
:1040F00094E0099566277727CB016C197D098E0915
:104100009F094AE003C04AE0C701B6010E94461B6E
:1041100084EA91E00E94261B0E940B01809100011D
:1041200090910101209102013091030101151105C7
:1041300041F1D8014D915C9111978417950741F495
:1041400012964D915C9113972417350709F4A5CF6A
:10415000F80104811581EACFF8012481358130937B
:1041600005032093040315961C930E931497109344
:10417000B7020093B60291838083738362831582B2
:10418000148200910403109105030E94340101156B
:10419000110539F1D8011296ED91FC911397EE0FAC
:1041A000FF1FE754FD4F8D919C9111972AE030E05D
:1041B000281B390BA10102C0440F551F2A95E2F7B5
:1041C00080812181922F9370842B952B8083892F5E
:1041D00083702C7F282B218314960D911C911597A9
:1041E000D6CFE12CF12CC12CD12CC701880F991FFF
:1041F000DC01A554BD4F3D01D3018C9111962C914A
:10420000922F93700C2C02C0959587950A94E2F733
:1042100080FF0AC00091B9022091B8024091BA0211
:10422000B601C7010E946402BFEFCB1ADB0AEAE0C5
:10423000CE16D10409F7FFEFEF1AFF0A2AE0E216C3
:10424000F10489F680910201909103010197209178
:10425000000130910101B701621B730BFC01EE0FED
:10426000FF1FE554FD4FA101062E02C0440F551F4C
:104270000A94E2F72081A1813A2F3370242B352B49
:104280002083232F2370AC7FA22BA1830FE02FE08C
:104290004FE00E9464020E94731160930A037093BE
:1042A0000B0380930C0390930D033DCE0E94FB08FB
:1042B0000E9434016FC087EA91E00E94B81B009110
:1042C000060110910701882359F00530110529F4E2
:1042D000509207014092060119C00F5F1F4F12C094
:1042E0008CEA91E00E94B81B882381F0013011050F
:1042F00039F485E090E0909307018093060106C0B1
:1043000001501109109307010093060180910601E5
:10431000909107013DC087EA91E00E94B81B00918F
:10432000040110910501882359F00330110529F487
:10433000509205014092040117C00F5F1F4F10C03B
:104340008CEA91E00E94B81B882371F001301105BE
:1043500029F4F0920501E092040106C00150110910
:1043600010930501009304018091040190910501CF
:104370008230910541F08330910541F0019751F46D
:1043800081E090E005C082E090E002C083E090E030
:104390000E94C9090E94AF0A4FCC0E94C4268D8199
:1043A0009E819093E3048093E204A3CC8091DE0489
:1043B0009091DF040C944B25E1E4F4E01382128227
:1043C00088EE93E0A0E0B0E084839583A683B78372
:1043D0008FE291E09183808385EC90E095878487DC
:1043E00084EC90E09787868780EC90E0918B808BBF
:1043F00081EC90E0938B828B82EC90E0958B848BA8
:1044000086EC90E0978B868B118E128E138E148E15
:10441000EEEDF4E011821082138212821582148272
:1044200040E050E066EA71E0CF010C94391C8F92B5
:104430009F92AF92BF92CF92DF92EF92FF92CF9373
:10444000DF93EC01688179818A819B816115710517
:104450008105910521F464E279ED8BE597E02DE18A
:1044600033EF41E050E00E946E2349015A019B0165
:10447000AC01A7EAB1E40E948D236B017C01ACEE94
:10448000B4EFA50194010E949B23DC01CB018C0DAC
:104490009D1DAE1DBF1DB7FF03C00197A109B04808
:1044A00088839983AA83BB83BC01CD019F77DF9169
:1044B000CF91FF90EF90DF90CF90BF90AF909F9003
:1044C0008F9008950E94172208958DE091E00E9438
:1044D0001722089560930D0170930E0180930F01D0
:1044E000909310010895E89409C097FB3EF49095CD
:1044F0008095709561957F4F8F4F9F4F9923A9F0BD
:10450000F92F96E9BB279395F6958795779567954B
:10451000B795F111F8CFFAF4BB0F11F460FF1BC08F
:104520006F5F7F4F8F4F9F4F16C0882311F096E922
:1045300011C0772321F09EE8872F762F05C06623D0
:1045400071F096E8862F70E060E02AF09A95660F89
:10455000771F881FDAF7880F9695879597F9089542
:104560000E94C3220C9434230E94262338F00E9418
:104570002D2320F0952311F00C941D230C9423235C
:1045800011240C9468230E94452370F3959FC1F376
:10459000950F50E0551F629FF001729FBB27F00DF1
:1045A000B11D639FAA27F00DB11DAA1F649F662746
:1045B000B00DA11D661F829F2227B00DA11D621F95
:1045C000739FB00DA11D621F839FA00D611D221F4F
:1045D000749F3327A00D611D231F849F600D211D33
:1045E000822F762F6A2F11249F5750409AF0F1F0B6
:1045F00088234AF0EE0FFF1FBB1F661F771F881F1F
:1046000091505040A9F79E3F510580F00C941D2316
:104610000C9468235F3FE4F3983ED4F38695779536
:104620006795B795F795E7959F5FC1F7FE2B880FC4
:10463000911D9695879597F9089597F99F6780E85A
:1046400070E060E008959FEF80EC089500240A94E4
:104650001616170618060906089500240A9412165D
:104660001306140605060895092E0394000C11F490
:10467000882352F0BB0F40F4BF2B11F460FF04C03D
:104680006F5F7F4F8F4F9F4F089557FD9058440F96
:10469000551F59F05F3F71F04795880F97FB991FA1
:1046A00061F09F3F79F0879508951216130614065E
:1046B000551FF2CF4695F1DF08C0161617061806EB
:1046C000991FF1CF86957105610508940895E894C6
:1046D000BB2766277727CB0197F90895052E97FB0F
:1046E0001EF400940E94852357FD07D00E94D72313
:1046F00007FC03D04EF40C948523509540953095DB
:1047000021953F4F4F4F5F4F08959095809570953D
:1047100061957F4F8F4F9F4F08950E94F923A59F6A
:10472000900DB49F900DA49F800D911D11240895AC
:10473000B7FF0C948D230E948D23821B930B089549
:104740002F923F924F925F926F927F928F929F92A1
:10475000AF92BF92CF92DF92EF92FF920F931F938F
:10476000CF93DF93CDB7DEB7CA1BDB0B0FB6F89440
:10477000DEBF0FBECDBF09942A88398848885F8480
:104780006E847D848C849B84AA84B984C884DF80F1
:10479000EE80FD800C811B81AA81B981CE0FD11DD5
:1047A0000FB6F894DEBF0FBECDBFED010895A1E2B4
:1047B0001A2EAA1BBB1BFD010DC0AA1FBB1FEE1F9B
:1047C000FF1FA217B307E407F50720F0A21BB30BE6
:1047D000E40BF50B661F771F881F991F1A9469F762
:1047E00060957095809590959B01AC01BD01CF01BE
:1047F0000895A29FB001B39FC001A39F700D811DBA
:104800001124911DB29F700D811D1124911D0895D9
:104810000E941C240C9434230E942D2358F00E94E3
:10482000262340F029F45F3F29F00C941D235111F9
:104830000C9468230C9423230E94452368F3992346
:10484000B1F3552391F3951B550BBB27AA2762178C
:104850007307840738F09F5F5F4F220F331F441F99
:10486000AA1FA9F335D00E2E3AF0E0E832D09150CD
:104870005040E695001CCAF72BD0FE2F29D0660FBA
:10488000771F881FBB1F261737074807AB07B0E8FD
:1048900009F0BB0B802DBF01FF2793585F4F3AF003
:1048A0009E3F510578F00C941D230C9468235F3FC4
:1048B000E4F3983ED4F3869577956795B795F79589
:1048C0009F5FC9F7880F911D9695879597F9089571
:1048D000E1E0660F771F881FBB1F6217730784070D
:1048E000BA0720F0621B730B840BBA0BEE1F88F71C
:1048F000E09508950E9481246894B1110C94682376
:1049000008950E944D2388F09F5798F0B92F99275A
:10491000B751B0F0E1F0660F771F881F991F1AF0AA
:10492000BA95C9F714C0B13091F00E946723B1E085
:1049300008950C946723672F782F8827B85F39F084
:10494000B93FCCF3869577956795B395D9F73EF443
:1049500090958095709561957F4F8F4F9F4F0895EB
:10496000EE0FFF1F0590F491E02D0994CF93DF9394
:104970008230910510F482E090E0E091E604F0913D
:10498000E70420E030E0C0E0D0E0309711F1408152
:10499000518148175907C0F04817590761F48281BF
:1049A0009381209719F09B838A832BC09093E7040F
:1049B0008093E60426C02115310519F042175307EC
:1049C00018F49A01BE01DF01EF010280F381E02DAE
:1049D000DCCF2115310509F1281B390B24303105B5
:1049E00090F412968D919C9113976115710521F0A9
:1049F000FB019383828304C09093E7048093E604D1
:104A0000FD01329644C0FD01E20FF31F81939193A3
:104A1000225031092D933C933AC02091E404309107
:104A2000E504232B41F420911301309114013093BC
:104A3000E5042093E4042091110130911201211525
:104A4000310541F42DB73EB7409115015091160143
:104A5000241B350BE091E404F091E504E217F30721
:104A6000A0F42E1B3F0B2817390778F0AC014E5FDE
:104A70005F4F2417350748F04E0F5F1F5093E50432
:104A80004093E4048193919302C0E0E0F0E0CF0111
:104A9000DF91CF9108950F931F93CF93DF930097EA
:104AA00009F48CC0FC013297138212820091E60453
:104AB0001091E7040115110581F420813181820FE5
:104AC000931F2091E4043091E5042817390779F504
:104AD000F093E504E093E40471C0D80140E050E0B5
:104AE000AE17BF0750F412962D913C911397AD016C
:104AF0002115310509F1D901F3CF9D01DA01338385
:104B0000228360817181860F971F8217930769F452
:104B1000EC0128813981260F371F2E5F3F4F3183EB
:104B200020838A819B8193838283452B29F4F09390
:104B3000E704E093E60442C01396FC93EE931297C9
:104B4000ED01499159919E01240F351FE217F3079A
:104B500071F480819181840F951F029611969C9328
:104B60008E938281938113969C938E931297E0E0AB
:104B7000F0E0D80112968D919C911397009719F04F
:104B8000F8018C01F6CF8D919C9198012E5F3F4FDB
:104B9000820F931F2091E4043091E5042817390710
:104BA00069F4309729F41092E7041092E60402C0E9
:104BB000138212821093E5040093E404DF91CF91F5
:104BC0001F910F910895A0E0B0E0E9EEF5E20C949A
:104BD000A423EC01009721F4CB010E94B624B8C0B5
:104BE000FC01E60FF71F9C0122503109E217F30781
:104BF00008F4ACC0D9010D911C9111970617170745
:104C0000B0F00530110508F49FC0C801049786175D
:104C1000970708F499C002501109061B170B01935E
:104C200011936D937C93CF010E944B258DC05B0146
:104C3000A01AB10A4C01800E911EA091E604B09119
:104C4000E70440E050E0E12CF12C109709F44AC051
:104C5000A815B905D1F56D907C901197630182E09C
:104C6000C80ED11CCA14DB0480F1A3014A195B09E8
:104C70006A0182E0C80ED11C1296BC90129713965E
:104C8000AC91B5E0CB16D10440F0B282A38351833E
:104C90004083D9016D937C930AC00E5F1F4FC301FF
:104CA000800F911FF90191838083EB2DFA2FE1147E
:104CB000F10431F0D7011396FC93EE93129744C0A0
:104CC000F093E704E093E6043FC08D919C91119727
:104CD0004817590708F4AC017D0112960D90BC915C
:104CE000A02DB3CF8091E4049091E5048815990537
:104CF000E1F446175707C8F4809111019091120111
:104D0000009741F48DB79EB740911501509116015F
:104D1000841B950BE817F907C8F4F093E504E093BA
:104D2000E404F901718360830FC0CB010E94B624B3
:104D30007C01009759F0A801BE010E94B226CE0165
:104D40000E944B25C70104C0CE0102C080E090E064
:104D5000CDB7DEB7EEE00C94C02381E090E0F8948C
:104D60000C94CB26FB01DC0102C001900D92415056
:104D70005040D8F70895FB01DC018D910190801916
:104D80000110D9F3990B0895FB01DC0101900D92FC
:104D90000020E1F7089510E0CDE5D0E004C0FE0169
:104DA0000E94B0242196CE35D107C9F7F894FFCFE1
:104DB00005000500010001000400040001010000DD
:104DC000000000E804800000020001800040002094
:104DD000001000080004000200010000000000466E
:104DE0000AF91A0F0AED09010A8D0A726564006258
:104DF0006C756500677265656E00656E6400616E56
:104E0000696D006E6F746900736E616B65006D751E
:104E100073696300746F7563680066616365626FD0
:104E20006F6B0066616365626F6F6B207265007700
:104E30006861747361707000776861747361707019
:104E400020726500736D7300736D7320726500636B
:104E5000616C6C000D0A006E657874007072657686
:024E6000000050
:107E0000112484B714BE81FFF0D085E080938100F7
:107E100082E08093C00088E18093C10086E0809377
:107E2000C20080E18093C4008EE0C9D0259A86E02C
:107E300020E33CEF91E0309385002093840096BBD3
:107E4000B09BFECF1D9AA8958150A9F7CC24DD24C4
:107E500088248394B5E0AB2EA1E19A2EF3E0BF2EE7
:107E6000A2D0813461F49FD0082FAFD0023811F036
:107E7000013811F484E001C083E08DD089C08234E0
:107E800011F484E103C0853419F485E0A6D080C0E4
:107E9000853579F488D0E82EFF2485D0082F10E0AE
:107EA000102F00270E291F29000F111F8ED06801E7
:107EB0006FC0863521F484E090D080E0DECF843638
:107EC00009F040C070D06FD0082F6DD080E0C81688
:107ED00080E7D80618F4F601B7BEE895C0E0D1E017
:107EE00062D089930C17E1F7F0E0CF16F0E7DF06D8
:107EF00018F0F601B7BEE89568D007B600FCFDCFD4
:107F0000A601A0E0B1E02C9130E011968C91119780
:107F100090E0982F8827822B932B1296FA010C0160
:107F200087BEE89511244E5F5F4FF1E0A038BF0790
:107F300051F7F601A7BEE89507B600FCFDCF97BE46
:107F4000E89526C08437B1F42ED02DD0F82E2BD052
:107F50003CD0F601EF2C8F010F5F1F4F84911BD097
:107F6000EA94F801C1F70894C11CD11CFA94CF0C13
:107F7000D11C0EC0853739F428D08EE10CD085E9AC
:107F80000AD08FE07ACF813511F488E018D01DD067
:107F900080E101D065CF982F8091C00085FFFCCF94
:107FA0009093C60008958091C00087FFFCCF809118
:107FB000C00084FD01C0A8958091C6000895E0E648
:107FC000F0E098E1908380830895EDDF803219F02E
:107FD00088E0F5DFFFCF84E1DECF1F93182FE3DFCA
:107FE0001150E9F7F2DF1F91089580E0E8DFEE27F6
:047FF000FF270994CA
:027FFE00040479
:0400000300007E007B
:00000001FF