:100000000C945E000C9486000C9486000C94860080
:100010000C9486000C9486000C9486000C94860048
:100020000C9486000C9486000C9486000C940603B5
:100030000C9486000C9486000C9486000C94860028
:100040000C94E4010C9486000C94A6010C9480019D
:100050000C9486000C9486000C9486000C94860008
:100060000C9486000C948600000000080002010039
:100070000003040700000000000000000000000072
:10008000250028002B0000000000240027002A0083
:10009000040404040404040402020202020203032E
:1000A0000303030301020408102040800102040836
:1000B0001020010204081020A3169D1611241FBE53
:1000C000CFEFD8E0DEBFCDBF11E0A0E0B1E0E8EFB8
:1000D000F3E302C005900D92A239B107D9F724E0ED
:1000E000A2E9B1E001C01D92A83CB207E1F710E01F
:1000F000CDE5D0E004C02197FE010E94D417CC3595
:10010000D107C9F70E94C5070C94EF190C940000A1
:10011000FC01918D828D981761F0828DDF01A80F0F
:10012000B11D5D968C91928D9F5F9F73928F90E031
:1001300008958FEF9FEF0895FC01918D828D9817A0
:1001400031F0828DE80FF11D858D90E008958FEFDD
:100150009FEF0895FC01918D228D892F90E0805CA6
:100160009F4F821B91098F739927089581E294E034
:100170000E94AA0021E0892B09F420E0822F089533
:10018000FC01848DDF01A80FB11DA35ABF4F2C9134
:10019000848D90E001968F739927848FA689B78903
:1001A0002C93A089B1898C9180648C93938D848DDC
:1001B000981306C00288F389E02D80818F7D8083AB
:1001C0000895EF92FF920F931F93CF93DF93EC016B
:1001D00081E0888F9B8D8C8D981305C0E889F98903
:1001E000808185FD24C0F62E0B8D10E00F5F1F4F20
:1001F0000F731127E02E8C8DE8120CC00FB607FC90
:10020000FACFE889F989808185FFF5CFCE010E9478
:10021000C000F1CF8B8DFE01E80FF11DE35AFF4FB7
:10022000F0820B8FEA89FB898081806207C0EE89AA
:10023000FF896083E889F98980818064808381E017
:1002400090E0DF91CF911F910F91FF90EF90089573
:10025000CF93DF93EC01888D8823C9F0EA89FB896D
:10026000808185FD05C0A889B9898C9186FD0FC064
:100270000FB607FCF5CF808185FFF2CFA889B98939
:100280008C9185FFEDCFCE010E94C000E7CFDF91BA
:10029000CF91089580E090E0892B29F00E94B6006C
:1002A00081110C94000008953FB7F89480911D04CB
:1002B00090911E04A0911F04B091200426B5A89B24
:1002C00005C02F3F19F00196A11DB11D3FBFBA2FE8
:1002D000A92F982F8827820F911DA11DB11DBC0148
:1002E000CD0142E0660F771F881F991F4A95D1F70D
:1002F00008958EBD00000DB407FEFDCF8EB50895A4
:100300001F920F920FB60F9211242F933F934F938A
:100310005F936F937F938F939F93AF93BF93EF936D
:10032000FF9381E294E00E94C000FF91EF91BF91A2
:10033000AF919F918F917F916F915F914F913F917D
:100340002F910F900FBE0F901F9018951F920F9234
:100350000FB60F9211242F938F939F93EF93FF93D8
:10036000E0913104F09132048081E0913704F09102
:10037000380482FD12C0908180913A048F5F8F73A0
:1003800020913B04821751F0E0913A04F0E0EF5DD8
:10039000FB4F958F80933A0401C08081FF91EF91CC
:1003A0009F918F912F910F900FBE0F901F901895D6
:1003B0002FB7F8946091190470911A0480911B046E
:1003C00090911C042FBF08951F920F920FB60F92A9
:1003D00011242F933F938F939F93AF93BF9380915B
:1003E000190490911A04A0911B04B0911C0430913F
:1003F000180423E0230F2D3720F40196A11DB11D11
:1004000005C026E8230F0296A11DB11D20931804F4
:100410008093190490931A04A0931B04B0931C04B6
:1004200080911D0490911E04A0911F04B09120049E
:100430000196A11DB11D80931D0490931E04A093ED
:100440001F04B0932004BF91AF919F918F913F9172
:100450002F910F900FBE0F901F901895CF92DF92A3
:10046000EF92FF92CF93DF930E942C17C4E8D2E063
:100470002FE0C22ED12CE12CF12CA70196010E9475
:100480003A1768830E942C17A70196010E943A1719
:100490006A830E942C17A70196010E943A1769836C
:1004A000DF91CF91FF90EF90DF90CF90089520E003
:1004B00030E0C90163E0880F991F6A95E1F7FC01FC
:1004C000EE5CFD4F108241814C7F4183FC01EC5C6E
:1004D000FD4F108241814C7F4183FC01EA5CFD4F5E
:1004E000108241814C7F4183FC01E85CFD4F10820A
:1004F00081818C7F81832F5F3F4F2A303105C9F680
:1005000020E030E0C90153E0880F991F5A95E1F7C8
:10051000FC01EE51FE4F108241814C7F4183FC0172
:10052000EC51FE4F108241814C7F4183FC01EA5126
:10053000FE4F108241814C7F4183FC01E851FE4F08
:10054000108281818C7F81832F5F3F4F2A3031055C
:10055000C9F620E030E0C90143E0880F991F4A95B1
:10056000E1F7FC01EE56FE4F108241814C7F418342
:10057000FC01EC56FE4F108241814C7F4183FC010F
:10058000EA56FE4F108241814C7F4183FC01E856C0
:10059000FE4F108281818C7F81832F5F3F4F2A30F5
:1005A0003105C9F680E090E0FC01EE0FFF1FE9572E
:1005B000FD4F108221812C7F218301968A30910585
:1005C00099F708950F931F93CF93DF938C01EB015D
:1005D00086E090E00E94DA17FC0111830083D38348
:1005E000C28315821482A0918202B0918302109777
:1005F00021F015969C938E931497F0938302E093C9
:100600008202DF91CF911F910F9108951F920F9257
:100610000FB60F921124AF92BF92CF92DF92EF925A
:10062000FF920F931F932F933F934F935F936F937B
:100630007F938F939F93AF93BF93EF93FF93CF934A
:10064000DF93CDB7DEB72597DEBFCDBF8091EA023D
:100650009091EB0201969093EB028093EA025C9AF0
:10066000E090EA02F090EB02C7018D7F019751F410
:100670008091E8029091E90201969093E9028093BB
:10068000E80204C087E0E816F10491F30091E60265
:100690001091E7028091E8029091E9029801220FFF
:1006A000331F220F331F280F391F220F331FF90169
:1006B000EE5CFD4F908141814370F901EE56FE4F93
:1006C000808161816370F801EE0FFF1FED5EFE4FC8
:1006D00070815181F901EE51FE4FA0802181A982E4
:1006E000D92EDD0CDD0C2370D22ADA8292959695F4
:1006F00096959370242F220F220FC82EC294E0EFFC
:10070000CE22922BC92ACB82382F32953F70462FAA
:100710004295407FB72EB294BB0CBB0CF0ECBF22CD
:10072000342BB32ABC82352F3295330F330F307CF4
:10073000272F26952695822F832B8D830E94790162
:100740008B2D0E9479018C2D0E9479018D2D0E94A4
:1007500079018A2D0E9479018FE0E816F10489F46D
:100760001092EB021092EA021092E9021092E80253
:100770008091E4029091E50201969093E5028093C6
:10078000E4028091E4029091E502019751F40F5F39
:100790001F4F1093E7020093E6021092E5021092B9
:1007A000E4025A9A8BB11BB88BB11BB88091E60258
:1007B0009091E7020A9721F41092E7021092E60264
:1007C0000F900F900F900F900F90DF91CF91FF91AE
:1007D000EF91BF91AF919F918F917F916F915F91B9
:1007E0004F913F912F911F910F91FF90EF90DF90CC
:1007F000CF90BF90AF900F900FBE0F901F901895A5
:100800008F929F92AF92BF92CF92DF92EF92FF9220
:100810000F931F93CF93DF9397FD06C08A30910506
:100820002CF089E090E002C080E090E077FD06C007
:100830006A3071052CF069E070E002C060E070E0A1
:10084000342F403108F03FE0203108F02FE0003134
:1008500008F00FE0812C912C54018394062E04C0E3
:10086000880C991CAA1CBB1C0A94D2F76401F401E1
:10087000E095F095E12CF12CA32EB12CEC01CC0FDE
:10088000DD1FCC0FDD1FA5010E2C02C0559547952D
:100890000A94E2F7DE01AE0DBF1DAA0FBB1FAE5CCE
:1008A000BD4F40FF09C04C9111961C911197512FDB
:1008B00053704C295D2908C04C9111961C911197D9
:1008C000512F53704E235F234C93452F43701C7F51
:1008D000142B11961C931FEFE11AF10A44E0E41661
:1008E000F10489F640E050E0A22EB12CD501042E8F
:1008F00002C0B595A7950A94E2F7A0FF11C0DE01EA
:10090000A40FB51FAA0FBB1FAE56BE4FEC90119699
:100910009C901197192D1370F12EEC28FD2810C012
:10092000DE01A40FB51FAA0FBB1FAE56BE4FEC9041
:1009300011969C901197192D1370F12EEE22FF2223
:10094000EC921F2D1370F12E192D1C7F1F2911966B
:100950001C934F5F5F4F4430510541F640E050E03B
:10096000A02EB12CD501042E02C0B595A7950A94EE
:10097000E2F7A0FF11C0DE01A40FB51FAA0FBB1F35
:10098000AE51BE4FEC9011969C901197192D13709B
:10099000F12EEC28FD2810C0DE01A40FB51FAA0F10
:1009A000BB1FAE51BE4FEC9011969C901197192D24
:1009B0001370F12EEE22FF22EC921F2D1370F12EF8
:1009C000192D1C7F1F2911961C934F5F5F4F4430D8
:1009D000510541F6AB01440F551F640F751F4EE1E1
:1009E000489FF001499FF00D11246E0F7F1FFB01FE
:1009F000E451FD4F328300832183DF91CF911F911A
:100A00000F91FF90EF90DF90CF90BF90AF909F90AD
:100A10008F9008958F929F92AF92BF92CF92DF9264
:100A2000EF92FF920F93CF93DF93C0E1D0E08CEE73
:100A3000A82E82E0B82EC50120E030E0FC01E20FD4
:100A4000F31F4281423010F04150428340814230D6
:100A500010F0415040834181423010F041504183B9
:100A60002D5F3F4F2E31310549F74E9624E08831F6
:100A7000920711F7C12CD12C812C912CE12CF12C57
:100A8000F501E80DF91D008121814281B701C60100
:100A90000E9400048FEFE81AF80A23E0820E911CEE
:100AA0008AE0E816F10461F72FEFC21AD20A8EE14C
:100AB000A80EB11C2AE0C216D104F1F60E9454011E
:100AC0004B015C019AE0C92ED12CE12CF12C0E9443
:100AD0005401DC01CB0188199909AA09BB09883E98
:100AE0009340A105B10558F081E0C81AD108E1088A
:100AF000F10828EE820E23E0921EA11CB11CC11445
:100B0000D104E104F10419F7219709F090CFDF91A6
:100B1000CF910F91FF90EF90DF90CF90BF90AF906B
:100B20009F908F9008954F925F926F927F928F92D5
:100B30009F92AF92BF92CF92DF92EF92FF920F936C
:100B4000CF93DF938BE9C82E82E0D82E812C912C95
:100B5000E12CF12CC0E0D0E08091CD029091CE024A
:100B6000881699060CF095C02601F60180819181C6
:100B7000029751F50FE020E040E0BE01C7010E945E
:100B8000000420E040E0BE015701FFEFAF1ABF0AAA
:100B9000C5010E9400043E018FEF681A780A20E028
:100BA00040E0B301C7010E94000420E040E0B3012F
:100BB000C5010E9400042296CA30D10529F4E2E062
:100BC000EE0EF11CC0E0D0E0F60180819181892B0E
:100BD00051F500E02FE040E0BE01C7010E94000493
:100BE0002FE040E0BE015701FFEFAF1ABF0AC50179
:100BF0000E9400043E018FEF681A780A2FE040E05F
:100C0000B301C7010E9400042FE040E0B301C50119
:100C10000E9400042296CA30D10529F4E2E0EE0ECB
:100C2000F11CC0E0D0E0F2E0CF0ED11CF2018081D7
:100C30009181019751F500E020E04FE0BE01C7012E
:100C40000E94000420E04FE0BE015701FFEFAF1A01
:100C5000BF0AC5010E9400043E018FEF681A780A9E
:100C600020E04FE0B301C7010E94000420E04FE004
:100C7000B301C5010E9400042296CA30D10529F4AF
:100C8000E2E0EE0EF11CC0E0D0E0FFEF8F1A9F0A09
:100C900063CFDF91CF910F91FF90EF90DF90CF90D6
:100CA000BF90AF909F908F907F906F905F904F908C
:100CB00008950895CF92DF92EF92FF920F931F93C2
:100CC000CF93DF936C017A018B01C0E0D0E0CE15A9
:100CD000DF0589F0D8016D918D01D601ED91FC9170
:100CE0000190F081E02DC6010995892B11F47E0158
:100CF00002C02196ECCFC701DF91CF911F910F91D8
:100D0000FF90EF90DF90CF9008950E94D119009747
:100D100069F0FC0101900020E9F73197AF01481B11
:100D2000590BBC0181E294E00C945A0680E090E0FB
:100D30000895CF93DF930E948706EC018FE891E03E
:100D40000E9487068C0F9D1FDF91CF9108958F928F
:100D50009F92AF92BF920F931F93CF93DF93CDB724
:100D6000DEB7A1970FB6F894DEBF0FBECDBF19A2B4
:100D7000423008F44AE08E010F5D1F4F842E912C03
:100D8000A12CB12CA50194010E94A317E62FB90153
:100D9000CA0101501109EA3014F4E05D01C0E95CB8
:100DA000D801EC93232B242B252B61F7C8010E943B
:100DB0008706A1960FB6F894DEBF0FBECDBFDF91B8
:100DC000CF911F910F91BF90AF909F908F900895FA
:100DD000CF93DF93BC0180E090E042E00E94A70641
:100DE000EC018FE891E00E9487068C0F9D1FDF9138
:100DF000CF91089590E0FC01EC55FF4F2491FC0148
:100E0000E057FF4F8491882399F090E0880F991F55
:100E1000FC01EA57FF4FA591B491FC01E458FF4F44
:100E2000859194918FB7F894EC91E22BEC938FBF5E
:100E30000895FC018091C2049091C304892B21F490
:100E400021E0309749F413C08091BE049091BF0413
:100E5000309731F421E0FC018081882341F006C005
:100E6000BF010E94DF1921E0892B09F020E0822FC9
:100E700008950F931F930E94D801609329047093E3
:100E80002A0480932B0490932C04E0912104F09188
:100E900022040680F781E02D81E294E0099597FF16
:100EA0001FC00E94D8010091290410912A042091AA
:100EB0002B0430912C04DC01CB01801B910BA20B85
:100EC000B30B009125041091260420912704309142
:100ED000280480179107A207B307B8F28FEF9FEF9E
:100EE0001F910F9108950F931F93CF93DF93EC0100
:100EF00088819981009729F02A813B81261737073D
:100F000088F48B016F5F7F4F0E940719009761F093
:100F1000998388831B830A832C813D81232B11F4C1
:100F2000FC01108281E001C080E0DF91CF911F9130
:100F30000F910895EF92FF920F931F93CF93DF933A
:100F4000EC017B018A01BA010E9473072881398173
:100F500081110DC02115310519F0C9010E946F18CA
:100F6000198218821D821C821B821A8206C01D8370
:100F70000C83B701C9010E94E819CE01DF91CF911E
:100F80001F910F91FF90EF900895CF93DF93CDB70E
:100F9000DEB72C970FB6F894DEBF0FBECDBF7894A6
:100FA00084B5826084BD84B5816084BD85B582606E
:100FB00085BD85B5816085BD80916E00816080931F
:100FC0006E00109281008091810082608093810088
:100FD0008091810081608093810080918000816098
:100FE000809380008091B10084608093B1008091F3
:100FF000B00081608093B00080917A00846080931B
:101000007A0080917A00826080937A0080917A00E1
:10101000816080937A0080917A00806880937A0062
:101020001092C1008CB58F7D8CBD8CB5837F8CBD3B
:101030008CB58C7F8CBD8DB581608DBDF894109280
:1010400080008BE08093810082E080936F008AE0D3
:1010500090E0909389008093880082E00E94FA06D5
:101060008BE00E94FA068DE00E94FA0684E00E945E
:10107000FA061FB7F8948091CF02811163C08AE904
:1010800090E0FC0124914EEA50E0FA01649130E0D6
:10109000220F331F2A573F4FF901A591B4912C918C
:1010A000622309F040C0E2E7F0E02491FA014491A4
:1010B000FC0194919923B9F1222339F1233091F065
:1010C00038F42130A9F0223001F584B58F7D12C0AB
:1010D000273091F02830A1F02430B9F480918000BD
:1010E0008F7D03C0809180008F77809380000DC03A
:1010F00084B58F7784BD09C08091B0008F7703C01D
:101100008091B0008F7D8093B000E92FF0E0EE0F6A
:10111000FF1FE458FF4FA591B4918FB7F8949C91AD
:10112000492B4C938FBF8AE00E94FA068CB58061F0
:101130008CBD8CB580648CBD8DE00E94FA068BE07E
:101140000E94FA068091CF028F5F8093CF021FBF6B
:1011500084E480937C0080917A00806480937A009C
:1011600080917A0086FDFCCF6091780080917900B3
:1011700070E0782B072E000C880B990B6115710518
:101180008105910511F00E9431170E942E02E09115
:101190003104F091320482E08083E0912D04F091DB
:1011A0002E041082E0912F04F09130048FEC8083A4
:1011B00010923904E0913504F091360486E0808382
:1011C000E0913304F0913404808180618083E09168
:1011D0003304F0913404808188608083E09133048B
:1011E000F0913404808180688083E0913304F09131
:1011F000340480818F7D80830E94570287E391E0D1
:101200000E949906E12CF12CC12CD12C5701AA0C7B
:10121000BB1CAA0CBB1CF501EC0DFD1DEE0FFF1F46
:10122000EE5CFD4F9181808193700E94E806FFEF94
:10123000CF1ADF0A24E0C216D10469F73FEFE31AA0
:10124000F30A8AE0E816F104F9F68BE391E00E94D4
:101250009906E12CF12CC12CD12C5701AA0CBB1CF6
:10126000AA0CBB1CF501EC0DFD1DEE0FFF1FEE518E
:10127000FE4F9181808193700E94E8069FEFC91A0A
:10128000D90AA4E0CA16D10469F7BFEFEB1AFB0A2A
:10129000EAE0EE16F104F9F680E491E00E94990686
:1012A000E12CF12CC12CD12C5701AA0CBB1CAA0C8F
:1012B000BB1CF501EC0DFD1DEE0FFF1FEE56FE4FA2
:1012C0009181808193700E94E806FFEFCF1ADF0AB8
:1012D00024E0C216D10469F73FEFE31AF30A8AE06B
:1012E000E816F104F9F686E491E00E9499067894F4
:1012F0001A8219821C821B821E821D8240E050E0ED
:1013000061E971E0CE0101960E949A070E943907B7
:1013100097FD1FC08A309105E1F08F831886ED801C
:10132000FE809FEFE91AF90AB701CE0101960E94EB
:101330007307882359F329813A818D819E81BE01EB
:10134000695F7F4F820F931F0E94E819FE82ED8232
:10135000DDCF8091BE049091BF04009791F0698128
:101360007A816115710559F04091C0045091C10412
:101370002D813E814217530710F00C9493160E9462
:101380006F1889819A819093BF048093BE048B81EA
:101390009C819093C1048093C0048D819E81909321
:1013A000C3048093C2041A8219821C821B821E828B
:1013B0001D8289819A810E946F188AE491E00E94BF
:1013C0001907882339F08AE491E00E94990682E0A7
:1013D00090E015C08FE491E00E941907882329F05E
:1013E0001092E3021092E2020EC084E591E00E94A6
:1013F0001907882341F00E94570281E090E0909302
:10140000E3028093E2028091E2029091E302813054
:10141000910549F08230910509F400C3892B11F040
:101420000C948F1637C062E070E082E090E00E947A
:10143000E20280918202909183029093D102809384
:10144000D00262E070E083E090E00E94E2020E943D
:10145000D8016093DE027093DF028093E0029093E4
:10146000E1020E94D8016093DA027093DB0280935C
:10147000DC029093DD021092080166246394712CC3
:10148000F3E02F2E312CA2E0CA2ED12C4424439419
:10149000512C77C08AE591E00E9419078823A9F0B2
:1014A0008091CD029091CE02FC01EE0FFF1FE55618
:1014B000FD4F22E030E03183208301969093CE02ED
:1014C0008093CD0283E691E035C08FE691E00E94E3
:1014D0001907882399F08091CD029091CE02FC01EA
:1014E000EE0FFF1FE556FD4F11821082019690937B
:1014F000CE028093CD0288E791E01CC084E891E0A1
:101500000E941907882311F40C948F168091CD0244
:101510009091CE02FC01EE0FFF1FE556FD4F21E03A
:1015200030E03183208301969093CE028093CD02E8
:1015300088E891E00E9499060E9493050C948F160A
:1015400087379105D1F580910401909105010297AB
:1015500021F050920701409206018091DE029091A5
:10156000DF02A091E002B091E102881A990AAA0A6A
:10157000BB0AB0E48B16B1E09B06A104B10408F0ED
:101580004BC0109108011111BDC10E94D8014B013F
:101590005C016093DA027093DB028093DC0290932B
:1015A000DD0281E294E00E9488008137910541F6D6
:1015B0001092E3021092E202A5C18337910559F41B
:1015C0008091040190910501019739F2D0920701B1
:1015D000C0920601C2CF8436910561F48091040166
:1015E00090910501049709F4B8CF30920701209239
:1015F0000601B3CF8136910509F0AFCF8091040188
:1016000090910501039709F4A8CFA4E0B0E0B0934E
:101610000701A0930601A1CF209106013091070197
:101620003093050120930401A0918202B0918302BE
:101630008D919C91119712966D917C911397213009
:10164000310519F4615071090FC02230310519F4C8
:101650006F5F7F4F09C02330310511F4019704C03B
:101660002430310509F401968B30910534F41816B5
:1016700019062CF08AE090E002C081E090E06B3027
:10168000710534F4161617062CF06AE070E002C0FB
:1016900061E070E0E090D002F090D102F701309765
:1016A00079F0208131818217930729F422813381D7
:1016B0006217730721F00480F581E02DF0CF11E06F
:1016C00010930801111189C020910001309101018E
:1016D0008217930709F06CC0209102013091030139
:1016E0006217730709F064C00E94E2020E942C177F
:1016F00027E030E040E050E00E943A176F5F7F4FF4
:1017000070930101609300010E942C1727E030E0E4
:1017100040E050E00E943A176F5F7F4F70930301E3
:10172000609302018090000190900101092C000C4F
:10173000AA08BB08B7FE14C0E0912104F09122046E
:101740000190F081E02D6DE281E294E00995662739
:101750007727CB01681979098A099B094AE003C0F8
:101760004AE0C501B4010E94A7068FE891E00E94FB
:1017700087060E942E028091000190910101209124
:10178000020130910301E114F10439F1F7014081C4
:1017900051818417950731F442815381241735070D
:1017A00009F4A4CFD7011496ED90FC901597EBCFD8
:1017B000F701248135813093D1022093D002159610
:1017C000FC92EE921497F0928302E092820291834F
:1017D00080837383628315821482E090D002F0903C
:1017E000D1020E945702E114F10439F1D701129697
:1017F000ED91FC911397EE0FFF1FEB57FD4F8D916D
:101800009C9111972AE030E0281B390BA30102C0FC
:10181000440F551F2A95E2F780812181922F937002
:10182000842B952B8083892F83702C7F282B2183F9
:101830001496ED90FC901597D6CFE12CF12CA12CAD
:10184000B12CC701880F991FDC01A957BD4F4D016D
:10185000D4018C9111962C91922F93700A2C02C076
:10186000959587950A94E2F780FF0AC0009185025A
:101870002091840240918602B501C7010E940004B4
:10188000BFEFAB1ABB0AEAE0AE16B10409F7FFEFEF
:10189000EF1AFF0A2AE0E216F10489F680910201AC
:1018A0009091030101972091000130910101B7014E
:1018B000621B730BFC01EE0FFF1FE957FD4FA301E5
:1018C000062E02C0440F551F0A94E2F72081A18121
:1018D0003A2F3370242B352B2083232F2370AC7F9A
:1018E000A22BA1830FE02FE04FE00E9400040E9492
:1018F000D8016093DE027093DF028093E002909340
:10190000E1023FCE0E94D8016093D6027093D702C5
:101910008093D8029093D902E12CF12C1FEF0E9402
:101920002C174B015C010E942C1769877A878B87E3
:101930009C870E942C172B013C010E94D8016093C8
:10194000D2027093D3028093D4029093D502209157
:10195000D6023091D7024091D8025091D902DC01D1
:10196000CB01821B930BA40BB50B883C9105A10501
:10197000B10508F44AC0F701EE0FFF1FE957FD4F0C
:1019800010838181836081830E94D8016093D60295
:101990007093D7028093D8029093D90269857A8593
:1019A0008B859C852FE030E040E050E00E943A17A4
:1019B000D62EC301B2012FE030E040E050E00E949B
:1019C0003A17762EC501B4012FE030E040E050E038
:1019D0000E943A17C62EA12CB12C0D2D272D4C2D6F
:1019E000B501C7010E940004BFEFAB1ABB0AEAE0D1
:1019F000AE16B10491F7FFEFEF1AFF0A2AE0E216E4
:101A0000F10419F40E940A0505C03AE0E316F10456
:101A10000CF485CF0E9457020C948F1600E020E052
:101A200040E060E070E080E090E00E94000420E090
:101A300040E061E070E080E090E00E94000420E07F
:101A400040E062E070E080E090E00E94000420E06E
:101A500040E063E070E080E090E00E94000420E05D
:101A600040E064E070E080E090E00E94000420E04C
:101A700040E065E070E080E090E00E94000420E03B
:101A800040E066E070E080E090E00E94000420E02A
:101A900040E067E070E080E090E00E94000420E019
:101AA00040E068E070E080E090E00E94000420E008
:101AB00040E069E070E080E090E00E94000420E0F7
:101AC00040E060E070E081E090E00E94000420E0EF
:101AD00040E061E070E081E090E00E94000420E0DE
:101AE00040E062E070E081E090E00E94000420E0CD
:101AF00040E063E070E081E090E00E94000420E0BC
:101B000040E064E070E081E090E00E94000420E0AA
:101B100040E065E070E081E090E00E94000420E099
:101B200040E066E070E081E090E00E94000420E088
:101B300040E067E070E081E090E00E94000420E077
:101B400040E068E070E081E090E00E94000420E066
:101B500040E069E070E081E090E00E94000420E055
:101B600040E060E070E082E090E00E94000420E04D
:101B700040E061E070E082E090E00E94000420E03C
:101B800040E062E070E082E090E00E94000420E02B
:101B900040E063E070E082E090E00E94000420E01A
:101BA00040E064E070E082E090E00E94000420E009
:101BB00040E065E070E082E090E00E94000420E0F8
:101BC00040E066E070E082E090E00E94000420E0E7
:101BD00040E067E070E082E090E00E94000420E0D6
:101BE00040E068E070E082E090E00E94000420E0C5
:101BF00040E069E070E082E090E00E94000420E0B4
:101C000040E060E070E083E090E00E94000420E0AB
:101C100040E061E070E083E090E00E94000420E09A
:101C200040E062E070E083E090E00E94000420E089
:101C300040E063E070E083E090E00E94000420E078
:101C400040E064E070E083E090E00E94000420E067
:101C500040E065E070E083E090E00E94000420E056
:101C600040E066E070E083E090E00E94000420E045
:101C700040E067E070E083E090E00E94000420E034
:101C800040E068E070E083E090E00E94000420E023
:101C900040E069E070E083E090E00E94000420E012
:101CA00040E060E070E084E090E00E94000420E00A
:101CB00040E061E070E084E090E00E94000420E0F9
:101CC00040E062E070E084E090E00E94000420E0E8
:101CD00040E063E070E084E090E00E94000420E0D7
:101CE0004FE064E070E084E090E00E94000420E0B7
:101CF0004FE065E070E084E090E00E94000420E0A6
:101D000040E066E070E084E090E00E94000420E0A3
:101D100040E067E070E084E090E00E94000420E092
:101D200040E068E070E084E090E00E94000420E081
:101D300040E069E070E084E090E00E94000420E070
:101D400040E060E070E085E090E00E94000420E068
:101D500040E061E070E085E090E00E94000420E057
:101D600040E062E070E085E090E00E94000420E046
:101D700040E063E070E085E090E00E94000420E035
:101D80004FE064E070E085E090E00E94000420E015
:101D90004FE065E070E085E090E00E94000420E004
:101DA00040E066E070E085E090E00E94000420E002
:101DB00040E067E070E085E090E00E94000420E0F1
:101DC00040E068E070E085E090E00E94000420E0E0
:101DD00040E069E070E085E090E00E94000420E0CF
:101DE00040E060E070E086E090E00E94000420E0C7
:101DF00040E061E070E086E090E00E94000420E0B6
:101E000040E062E070E086E090E00E94000420E0A4
:101E100040E063E070E086E090E00E94000420E093
:101E200040E064E070E086E090E00E94000420E082
:101E300040E065E070E086E090E00E94000420E071
:101E400040E066E070E086E090E00E94000420E060
:101E500040E067E070E086E090E00E94000420E04F
:101E600040E068E070E086E090E00E94000420E03E
:101E700040E069E070E086E090E00E94000420E02D
:101E800040E060E070E087E090E00E94000420E025
:101E900040E061E070E087E090E00E94000420E014
:101EA00040E062E070E087E090E00E94000420E003
:101EB00040E063E070E087E090E00E94000420E0F2
:101EC00040E064E070E087E090E00E94000420E0E1
:101ED00040E065E070E087E090E00E94000420E0D0
:101EE00040E066E070E087E090E00E94000420E0BF
:101EF00040E067E070E087E090E00E94000420E0AE
:101F000040E068E070E087E090E00E94000420E09C
:101F100040E069E070E087E090E00E94000420E08B
:101F200040E060E070E088E090E00E94000420E083
:101F300040E061E070E088E090E00E94000420E072
:101F400040E062E070E088E090E00E94000420E061
:101F500040E063E070E088E090E00E94000420E050
:101F600040E064E070E088E090E00E94000420E03F
:101F700040E065E070E088E090E00E94000420E02E
:101F800040E066E070E088E090E00E94000420E01D
:101F900040E067E070E088E090E00E94000420E00C
:101FA00040E068E070E088E090E00E94000420E0FB
:101FB00040E069E070E088E090E00E94000420E0EA
:101FC00040E060E070E089E090E00E94000420E0E2
:101FD00040E061E070E089E090E00E94000420E0D1
:101FE00040E062E070E089E090E00E94000420E0C0
:101FF00040E063E070E089E090E00E94000420E0AF
:1020000040E064E070E089E090E00E94000420E09D
:1020100040E065E070E089E090E00E94000420E08C
:1020200040E066E070E089E090E00E94000420E07B
:1020300040E067E070E089E090E00E94000420E06A
:1020400040E068E070E089E090E00E94000420E059
:1020500040E069E070E089E090E00E9400040E94A6
:102060000A0520E040E060E070E080E090E00E943F
:10207000000420E040E061E070E080E090E00E9439
:10208000000420E040E062E070E080E090E00E9428
:10209000000420E040E063E070E080E090E00E9417
:1020A000000420E040E064E070E080E090E00E9406
:1020B000000420E040E065E070E080E090E00E94F5
:1020C000000420E040E066E070E080E090E00E94E4
:1020D000000420E040E067E070E080E090E00E94D3
:1020E000000420E040E068E070E080E090E00E94C2
:1020F000000420E040E069E070E080E090E00E94B1
:10210000000420E040E060E070E081E090E00E94A8
:10211000000420E040E061E070E081E090E00E9497
:10212000000420E040E062E070E081E090E00E9486
:10213000000420E040E063E070E081E090E00E9475
:10214000000420E040E064E070E081E090E00E9464
:10215000000420E040E065E070E081E090E00E9453
:10216000000420E040E066E070E081E090E00E9442
:10217000000420E040E067E070E081E090E00E9431
:10218000000420E040E068E070E081E090E00E9420
:10219000000420E040E069E070E081E090E00E940F
:1021A000000420E040E060E070E082E090E00E9407
:1021B000000420E040E061E070E082E090E00E94F6
:1021C000000420E040E062E070E082E090E00E94E5
:1021D00000042FE04FE063E070E082E090E00E94B6
:1021E00000042FE04FE064E070E082E090E00E94A5
:1021F00000042FE04FE065E070E082E090E00E9494
:1022000000042FE04FE066E070E082E090E00E9482
:10221000000420E040E067E070E082E090E00E948F
:10222000000420E040E068E070E082E090E00E947E
:10223000000420E040E069E070E082E090E00E946D
:10224000000420E040E060E070E083E090E00E9465
:10225000000420E040E061E070E083E090E00E9454
:1022600000042FE04FE062E070E083E090E00E9425
:10227000000420E040E063E070E083E090E00E9432
:10228000000420E040E064E070E083E090E00E9421
:10229000000420E040E065E070E083E090E00E9410
:1022A000000420E040E066E070E083E090E00E94FF
:1022B00000042FE04FE067E070E083E090E00E94D0
:1022C000000420E040E068E070E083E090E00E94DD
:1022D000000420E040E069E070E083E090E00E94CC
:1022E000000420E040E060E070E084E090E00E94C4
:1022F000000420E040E061E070E084E090E00E94B3
:1023000000042FE04FE062E070E084E090E00E9483
:10231000000420E040E063E070E084E090E00E9490
:10232000000420E04FE064E070E084E090E00E9470
:10233000000420E04FE065E070E084E090E00E945F
:10234000000420E040E066E070E084E090E00E945D
:1023500000042FE04FE067E070E084E090E00E942E
:10236000000420E040E068E070E084E090E00E943B
:10237000000420E040E069E070E084E090E00E942A
:10238000000420E040E060E070E085E090E00E9422
:10239000000420E040E061E070E085E090E00E9411
:1023A00000042FE04FE062E070E085E090E00E94E2
:1023B000000420E040E063E070E085E090E00E94EF
:1023C000000420E04FE064E070E085E090E00E94CF
:1023D000000420E04FE065E070E085E090E00E94BE
:1023E000000420E040E066E070E085E090E00E94BC
:1023F00000042FE04FE067E070E085E090E00E948D
:10240000000420E040E068E070E085E090E00E9499
:10241000000420E040E069E070E085E090E00E9488
:10242000000420E040E060E070E086E090E00E9480
:10243000000420E040E061E070E086E090E00E946F
:1024400000042FE04FE062E070E086E090E00E9440
:10245000000420E040E063E070E086E090E00E944D
:10246000000420E040E064E070E086E090E00E943C
:10247000000420E040E065E070E086E090E00E942B
:10248000000420E040E066E070E086E090E00E941A
:1024900000042FE04FE067E070E086E090E00E94EB
:1024A000000420E040E068E070E086E090E00E94F8
:1024B000000420E040E069E070E086E090E00E94E7
:1024C000000420E040E060E070E087E090E00E94DF
:1024D000000420E040E061E070E087E090E00E94CE
:1024E000000420E040E062E070E087E090E00E94BD
:1024F00000042FE04FE063E070E087E090E00E948E
:1025000000042FE04FE064E070E087E090E00E947C
:1025100000042FE04FE065E070E087E090E00E946B
:1025200000042FE04FE066E070E087E090E00E945A
:10253000000420E040E067E070E087E090E00E9467
:10254000000420E040E068E070E087E090E00E9456
:10255000000420E040E069E070E087E090E00E9445
:10256000000420E040E060E070E088E090E00E943D
:10257000000420E040E061E070E088E090E00E942C
:10258000000420E040E062E070E088E090E00E941B
:10259000000420E040E063E070E088E090E00E940A
:1025A000000420E040E064E070E088E090E00E94F9
:1025B000000420E040E065E070E088E090E00E94E8
:1025C000000420E040E066E070E088E090E00E94D7
:1025D000000420E040E067E070E088E090E00E94C6
:1025E000000420E040E068E070E088E090E00E94B5
:1025F000000420E040E069E070E088E090E00E94A4
:10260000000420E040E060E070E089E090E00E949B
:10261000000420E040E061E070E089E090E00E948A
:10262000000420E040E062E070E089E090E00E9479
:10263000000420E040E063E070E089E090E00E9468
:10264000000420E040E064E070E089E090E00E9457
:10265000000420E040E065E070E089E090E00E9446
:10266000000420E040E066E070E089E090E00E9435
:10267000000420E040E067E070E089E090E00E9424
:10268000000420E040E068E070E089E090E00E9413
:10269000000420E040E069E070E089E090E00E9402
:1026A00000040E940A0520E040E060E070E080E065
:1026B00090E00E94000420E040E061E070E080E0F3
:1026C00090E00E9400040FE020E04FE062E070E044
:1026D00080E090E00E94000420E04FE063E070E0C2
:1026E00080E090E00E94000420E04FE064E070E0B1
:1026F00080E090E00E94000420E04FE065E070E0A0
:1027000080E090E00E94000420E04FE066E070E08E
:1027100080E090E00E94000420E04FE067E070E07D
:1027200080E090E00E94000400E020E040E068E0EB
:1027300070E080E090E00E94000420E040E069E06A
:1027400070E080E090E00E94000420E040E060E063
:1027500070E081E090E00E9400040FE020E04FE094
:1027600061E070E081E090E00E94000400E020E081
:1027700040E062E070E081E090E00E94000420E030
:1027800040E063E070E081E090E00E94000420E01F
:1027900040E064E070E081E090E00E94000420E00E
:1027A00040E065E070E081E090E00E94000420E0FD
:1027B00040E066E070E081E090E00E94000420E0EC
:1027C00040E067E070E081E090E00E9400040FE0EC
:1027D00020E04FE068E070E081E090E00E940004BB
:1027E00000E020E040E069E070E081E090E00E94DD
:1027F00000040FE020E04FE060E070E082E090E055
:102800000E94000400E020E040E061E070E082E02F
:1028100090E00E94000420E040E062E070E082E08E
:1028200090E00E9400042FE04FE063E070E082E05F
:1028300090E00E9400042FE04FE064E070E082E04E
:1028400090E00E9400042FE04FE065E070E082E03D
:1028500090E00E9400042FE04FE066E070E082E02C
:1028600090E00E94000420E040E067E070E082E039
:1028700090E00E94000420E040E068E070E082E028
:1028800090E00E9400040FE020E04FE069E070E07B
:1028900082E090E00E94000420E04FE060E070E001
:1028A00083E090E00E94000400E020E040E061E06E
:1028B00070E083E090E00E9400042FE04FE062E0CF
:1028C00070E083E090E00E94000420E040E063E0DC
:1028D00070E083E090E00E94000420E040E064E0CB
:1028E00070E083E090E00E94000420E040E065E0BA
:1028F00070E083E090E00E94000420E040E066E0A9
:1029000070E083E090E00E9400042FE04FE067E079
:1029100070E083E090E00E94000420E040E068E086
:1029200070E083E090E00E9400040FE020E04FE0C0
:1029300069E070E083E090E00E94000420E04FE056
:1029400060E070E084E090E00E94000400E020E09D
:1029500040E061E070E084E090E00E9400042FE03D
:102960004FE062E070E084E090E00E94000420E02C
:1029700040E063E070E084E090E00E94000420E02A
:102980004FE064E070E084E090E00E94000420E00A
:102990004FE065E070E084E090E00E94000420E0F9
:1029A00040E066E070E084E090E00E9400042FE0E8
:1029B0004FE067E070E084E090E00E94000420E0D7
:1029C00040E068E070E084E090E00E9400040FE0E6
:1029D00020E04FE069E070E084E090E00E940004B5
:1029E00020E04FE060E070E085E090E00E940004AD
:1029F00000E020E040E061E070E085E090E00E94CF
:102A000000042FE04FE062E070E085E090E00E947B
:102A1000000420E040E063E070E085E090E00E9488
:102A2000000420E04FE064E070E085E090E00E9468
:102A3000000420E04FE065E070E085E090E00E9457
:102A4000000420E040E066E070E085E090E00E9455
:102A500000042FE04FE067E070E085E090E00E9426
:102A6000000420E040E068E070E085E090E00E9433
:102A700000040FE020E04FE069E070E085E090E0C6
:102A80000E94000420E04FE060E070E086E090E00B
:102A90000E94000400E020E040E061E070E086E099
:102AA00090E00E9400042FE04FE062E070E086E0DA
:102AB00090E00E94000420E040E063E070E086E0E7
:102AC00090E00E94000420E040E064E070E086E0D6
:102AD00090E00E94000420E040E065E070E086E0C5
:102AE00090E00E94000420E040E066E070E086E0B4
:102AF00090E00E9400042FE04FE067E070E086E085
:102B000090E00E94000420E040E068E070E086E091
:102B100090E00E9400040FE020E04FE069E070E0E8
:102B200086E090E00E94000420E04FE060E070E06A
:102B300087E090E00E94000400E020E040E061E0D7
:102B400070E087E090E00E94000420E040E062E056
:102B500070E087E090E00E9400042FE04FE063E027
:102B600070E087E090E00E9400042FE04FE064E016
:102B700070E087E090E00E9400042FE04FE065E005
:102B800070E087E090E00E9400042FE04FE066E0F4
:102B900070E087E090E00E94000420E040E067E001
:102BA00070E087E090E00E94000420E040E068E0F0
:102BB00070E087E090E00E9400040FE020E04FE02A
:102BC00069E070E087E090E00E94000400E020E00F
:102BD00040E060E070E088E090E00E9400040FE0D8
:102BE00020E04FE061E070E088E090E00E940004A7
:102BF00000E020E040E062E070E088E090E00E94C9
:102C0000000420E040E063E070E088E090E00E9493
:102C1000000420E040E064E070E088E090E00E9482
:102C2000000420E040E065E070E088E090E00E9471
:102C3000000420E040E066E070E088E090E00E9460
:102C4000000420E040E067E070E088E090E00E944F
:102C500000040FE020E04FE068E070E088E090E0E2
:102C60000E94000400E020E040E069E070E088E0BD
:102C700090E00E94000420E040E060E070E089E025
:102C800090E00E94000420E040E061E070E089E014
:102C900090E00E9400040FE020E04FE062E070E06E
:102CA00089E090E00E94000420E04FE063E070E0E3
:102CB00089E090E00E94000420E04FE064E070E0D2
:102CC00089E090E00E94000420E04FE065E070E0C1
:102CD00089E090E00E94000420E04FE066E070E0B0
:102CE00089E090E00E94000420E04FE067E070E09F
:102CF00089E090E00E94000400E020E040E068E00D
:102D000070E089E090E00E94000420E040E069E08B
:102D100070E089E090E00E9400040E940A050E9491
:102D20004A010C9478090E94E8198D819E81909344
:102D3000C3048093C2040C94D7098091BE0490917F
:102D4000BF040C946F18E1E2F4E01382128288EE63
:102D500093E0A0E0B0E084839583A683B7838BE201
:102D600091E09183808385EC90E09587848784EC63
:102D700090E09787868780EC90E0918B808B81EC48
:102D800090E0938B828B82EC90E0958B848B86EC29
:102D900090E0978B868B118E128E138E148EEEEB35
:102DA000F4E011821082138212821582148240E0B4
:102DB00050E061E971E0CF010C949A078F929F92E5
:102DC000AF92BF92CF92DF92EF92FF92CF93DF93B9
:102DD000EC01688179818A819B816115710581058A
:102DE000910521F464E279ED8BE597E02DE133EF75
:102DF00041E050E00E943A1749015A019B01AC01A1
:102E0000A7EAB1E40E9459176B017C01ACEEB4EF64
:102E1000A50194010E946717DC01CB018C0D9D1D5B
:102E2000AE1DBF1DB7FF03C00197A109B04888833D
:102E30009983AA83BB83BC01CD019F77DF91CF919A
:102E4000FF90EF90DF90CF90BF90AF909F908F90CA
:102E500008950E94DE16089589E091E00E94DE1632
:102E600008956093090170930A0180930B01909378
:102E70000C010895052E97FB1EF400940E94511733
:102E800057FD07D00E94A31707FC03D04EF40C9403
:102E9000511750954095309521953F4F4F4F5F4FBB
:102EA000089590958095709561957F4F8F4F9F4FB6
:102EB00008950E94C517A59F900DB49F900DA49FE3
:102EC000800D911D11240895B7FF0C9459170E948D
:102ED0005917821B930B08952F923F924F925F9246
:102EE0006F927F928F929F92AF92BF92CF92DF921A
:102EF000EF92FF920F931F93CF93DF93CDB7DEB77F
:102F0000CA1BDB0B0FB6F894DEBF0FBECDBF099412
:102F10002A88398848885F846E847D848C849B8469
:102F2000AA84B984C884DF80EE80FD800C811B8177
:102F3000AA81B981CE0FD11D0FB6F894DEBF0FBEA6
:102F4000CDBFED010895A1E21A2EAA1BBB1BFD0106
:102F50000DC0AA1FBB1FEE1FFF1FA217B307E40778
:102F6000F50720F0A21BB30BE40BF50B661F771FD0
:102F7000881F991F1A9469F76095709580959095B0
:102F80009B01AC01BD01CF010895A29FB001B39F89
:102F9000C001A39F700D811D1124911DB29F700D62
:102FA000811D1124911D0895EE0FFF1F0590F491CE
:102FB000E02D0994CF93DF938230910510F482E0E5
:102FC00090E0E091C604F091C70420E030E0C0E05A
:102FD000D0E0309711F14081518148175907C0F076
:102FE0004817590761F482819381209719F09B83D8
:102FF0008A832BC09093C7048093C60426C02115F2
:10300000310519F04217530718F49A01BE01DF0188
:10301000EF010280F381E02DDCCF2115310509F1AC
:10302000281B390B2430310590F412968D919C9118
:1030300013976115710521F0FB019383828304C00E
:103040009093C7048093C604FD01329644C0FD01ED
:10305000E20FF31F81939193225031092D933C93FA
:103060003AC02091C4043091C504232B41F420912F
:103070000F01309110013093C5042093C4042091B6
:103080000D0130910E012115310541F42DB73EB7E8
:103090004091110150911201241B350BE091C404A1
:1030A000F091C504E217F307A0F42E1B3F0B28177D
:1030B000390778F0AC014E5F5F4F2417350748F0B1
:1030C0004E0F5F1F5093C5044093C40481939193A6
:1030D00002C0E0E0F0E0CF01DF91CF9108950F93BF
:1030E0001F93CF93DF93009709F48CC0FC013297B4
:1030F000138212820091C6041091C70401151105B4
:1031000081F420813181820F931F2091C40430917A
:10311000C5042817390779F5F093C504E093C40472
:1031200071C0D80140E050E0AE17BF0750F41296CE
:103130002D913C911397AD012115310509F1D9016C
:10314000F3CF9D01DA013383228360817181860F81
:10315000971F8217930769F4EC0128813981260FA4
:10316000371F2E5F3F4F318320838A819B8193835A
:103170008283452B29F4F093C704E093C60442C030
:103180001396FC93EE931297ED01499159919E018C
:10319000240F351FE217F30771F480819181840FAA
:1031A000951F029611969C938E938281938113961C
:1031B0009C938E931297E0E0F0E0D80112968D91E7
:1031C0009C911397009719F0F8018C01F6CF8D911F
:1031D0009C9198012E5F3F4F820F931F2091C40452
:1031E0003091C5042817390769F4309729F41092F3
:1031F000C7041092C60402C0138212821093C50441
:103200000093C404DF91CF911F910F910895A0E026
:10321000B0E0EDE0F9E10C947017EC01009721F4B7
:10322000CB010E94DA17B8C0FC01E60FF71F9C0122
:1032300022503109E217F30708F4ACC0D9010D910F
:103240001C91119706171707B0F00530110508F407
:103250009FC0C80104978617970708F499C00250C9
:103260001109061B170B019311936D937C93CF01EA
:103270000E946F188DC05B01A01AB10A4C01800E2C
:10328000911EA091C604B091C70440E050E0E12C2B
:10329000F12C109709F44AC0A815B905D1F56D9025
:1032A0007C901197630182E0C80ED11CCA14DB0424
:1032B00080F1A3014A195B096A0182E0C80ED11CA2
:1032C0001296BC9012971396AC91B5E0CB16D10430
:1032D00040F0B282A38351834083D9016D937C93E4
:1032E0000AC00E5F1F4FC301800F911FF901918328
:1032F0008083EB2DFA2FE114F10431F0D7011396FE
:10330000FC93EE93129744C0F093C704E093C60475
:103310003FC08D919C9111974817590708F4AC0153
:103320007D0112960D90BC91A02DB3CF8091C40465
:103330009091C50488159905E1F446175707C8F41C
:1033400080910D0190910E01009741F48DB79EB7C9
:103350004091110150911201841B950BE817F90758
:10336000C8F4F093C504E093C404F9017183608349
:103370000FC0CB010E94DA177C01009759F0A80119
:10338000BE010E94D619CE010E946F18C70104C069
:10339000CE0102C080E090E0CDB7DEB7EEE00C9445
:1033A0008C1781E090E0F8940C94EF19FB01DC019C
:1033B00002C001900D9241505040D8F70895FB0192
:1033C000DC018D91019080190110D9F3990B0895BA
:1033D000FB01DC0101900D920020E1F7089510E05F
:1033E000CDE5D0E004C0FE010E94D4172196CE3571
:0833F000D107C9F7F894FFCFE3
:1033F800050005000400040001010000000000C8E9
:103408000480000002000180004000200010000835
:103418000004000200010000000000E1005A06AAB2
:103428000088009C00280172656400626C75650064
:10343800677265656E00656E6400616E696D006E29
:103448006F746900736E616B650066616365626FB6
:103458006F6B0066616365626F6F6B2072650077E2
:1034680068617473617070007768617473617070FB
:1034780020726500736D7300736D73207265000DA3
:023488000A0038
:00000001FF
