:100000000C945E000C9486000C9486000C94860080
:100010000C9486000C9486000C9486000C94860048
:100020000C9486000C9486000C9486000C94EF08C7
:100030000C9486000C9486000C9486000C94860028
:100040000C94DD010C9486000C9470010C944A0110
:100050000C9486000C9486000C9486000C94860008
:100060000C9486000C948600000000080002010039
:100070000003040700000000000000000000000072
:10008000250028002B0000000000240027002A0083
:10009000040404040404040402020202020203032E
:1000A0000303030301020408102040800102040836
:1000B00010200102040810204A17441711241FBE03
:1000C000CFEFD8E0DEBFCDBF11E0A0E0B1E0ECE8BB
:1000D000F8E302C005900D92AC3AB107D9F724E0DD
:1000E000ACEAB1E001C01D92A23EB207E1F710E018
:1000F000CDE5D0E004C02197FE010E941E1ACC3548
:10010000D107C9F70E94D1110C94391C0C9400003E
:10011000FC01918D828D981761F0828DDF01A80F0F
:10012000B11D5D968C91928D9F5F9F73928F90E031
:1001300008958FEF9FEF0895FC01918D828D9817A0
:1001400031F0828DE80FF11D858D90E008958FEFDD
:100150009FEF0895FC01918D228D892F90E0805CA6
:100160009F4F821B91098F73992708958BE394E029
:100170000E94AA0021E0892B09F420E0822F089533
:10018000FC01848DDF01A80FB11DA35ABF4F2C9134
:10019000848D90E001968F739927848FA689B78903
:1001A0002C93A089B1898C9180648C93938D848DDC
:1001B000981306C00288F389E02D80818F7D8083AB
:1001C0000895EF92FF920F931F93CF93DF93EC016B
:1001D00081E0888F9B8D8C8D981305C0E889F98903
:1001E000808185FD24C0F62E0B8D10E00F5F1F4F20
:1001F0000F731127E02E8C8DE8120CC00FB607FC90
:10020000FACFE889F989808185FFF5CFCE010E9478
:10021000C000F1CF8B8DFE01E80FF11DE35AFF4FB7
:10022000F0820B8FEA89FB898081806207C0EE89AA
:10023000FF896083E889F98980818064808381E017
:1002400090E0DF91CF911F910F91FF90EF90089573
:10025000CF93DF93EC01888D8823C9F0EA89FB896D
:10026000808185FD05C0A889B9898C9186FD0FC064
:100270000FB607FCF5CF808185FFF2CFA889B98939
:100280008C9185FFEDCFCE010E94C000E7CFDF91BA
:10029000CF9108951F920F920FB60F9211242F93B2
:1002A0003F934F935F936F937F938F939F93AF93FE
:1002B000BF93EF93FF938BE394E00E94C000FF9104
:1002C000EF91BF91AF919F918F917F916F915F91CE
:1002D0004F913F912F910F900FBE0F901F90189547
:1002E0001F920F920FB60F9211242F938F939F930B
:1002F000EF93FF93E0914B04F0914C048081E091E7
:100300005104F091520482FD12C0908180915404F6
:100310008F5F8F7320915504821751F0E091540440
:10032000F0E0E55CFB4F958F8093540401C0808121
:10033000FF91EF919F918F912F910F900FBE0F9092
:100340001F90189580E090E0892B29F00E94B6005C
:1003500081110C94000008953FB7F89480912F0408
:1003600090913004A0913104B091320426B5A89B3D
:1003700005C02F3F19F00196A11DB11D3FBFBA2F37
:10038000A92F982F8827820F911DA11DB11DBC0197
:10039000CD0142E0660F771F881F991F4A95D1F75C
:1003A00008952FB7F89460912B0470912C048091DC
:1003B0002D0490912E042FBF08951F920F920FB617
:1003C0000F9211242F933F938F939F93AF93BF93DB
:1003D00080912B0490912C04A0912D04B0912E04B7
:1003E00030912A0423E0230F2D3720F40196A11D1C
:1003F000B11D05C026E8230F0296A11DB11D209353
:100400002A0480932B0490932C04A0932D04B09382
:100410002E0480912F0490913004A0913104B0916A
:1004200032040196A11DB11D80932F0490933004D6
:10043000A0933104B0933204BF91AF919F918F91FB
:100440003F912F910F900FBE0F901F9018954F92D4
:100450005F926F927F928F929F92AF92BF92EF9234
:10046000FF920F931F93CF93DF932AE0E22EF12C9C
:10047000B7010F2C000C880B990B0E94E31720E0AA
:1004800030E040E251E40E9476192B013C018EEFEE
:10049000A82E82E0B82E8501812C912CE801C80D90
:1004A000D91D6A8170E080E090E00E94E317A3010B
:1004B00092010E941E180E94E8196A83688170E008
:1004C00080E090E00E94E317A30192010E941E18B1
:1004D0000E94E8196883698170E080E090E00E94E2
:1004E000E317A30192010E941E180E94E819698374
:1004F00023E0820E911C8EE18816910479F6025E4B
:100500001F4F24E00A32120739F6812C912C612CFE
:10051000712CC0E0D0E0F501E60DF71D00812181CE
:100520004281BE01C4010E94650A219683E0680EE3
:10053000711CCA30D10579F72FEF821A920A8EE129
:10054000A80EB11C2AE08216910409F70E94AC01A2
:100550002B013C0194E1892E912CA12CB12C0E94FD
:10056000AC01DC01CB0184199509A609B709883EC5
:100570009340A105B10558F081E0881A9108A108BF
:10058000B10828EE420E23E0521E611C711C81143A
:100590009104A104B10419F781E0E81AF10809F007
:1005A00067CFDF91CF911F910F91FF90EF90BF9098
:1005B000AF909F908F907F906F905F904F90089535
:1005C0004F925F926F927F928F929F92AF92BF9263
:1005D000CF92DF92EF92FF920F93CF93DF9385EB51
:1005E000C82E82E0D82E812C912CE12CF12CC0E079
:1005F000D0E08091E7029091E802881699060CF00D
:1006000095C02601F60180819181029751F50FE096
:1006100020E040E0BE01C7010E94650A20E040E002
:10062000BE015701FFEFAF1ABF0AC5010E94650A5C
:100630003E018FEF681A780A20E040E0B301C7015D
:100640000E94650A20E040E0B301C5010E94650AEE
:100650002296CA30D10529F4E2E0EE0EF11CC0E08A
:10066000D0E0F60180819181892B51F500E02FE0E7
:1006700040E0BE01C7010E94650A2FE040E0BE01D4
:100680005701FFEFAF1ABF0AC5010E94650A3E017C
:100690008FEF681A780A2FE040E0B301C7010E948B
:1006A000650A2FE040E0B301C5010E94650A229669
:1006B000CA30D10529F4E2E0EE0EF11CC0E0D0E032
:1006C000F2E0CF0ED11CF20180819181019751F5AA
:1006D00000E020E04FE0BE01C7010E94650A20E073
:1006E0004FE0BE015701FFEFAF1ABF0AC5010E94DC
:1006F000650A3E018FEF681A780A20E04FE0B301E7
:10070000C7010E94650A20E04FE0B301C5010E94C5
:10071000650A2296CA30D10529F4E2E0EE0EF11CFA
:10072000C0E0D0E0FFEF8F1A9F0A63CFDF91CF9137
:100730000F91FF90EF90DF90CF90BF90AF909F9080
:100740008F907F906F905F904F9008953F924F925F
:100750005F926F927F928F929F92AF92BF92CF9251
:10076000DF92EF92FF920F931F93CF93DF9300D00E
:1007700000D000D0CDB7DEB70E94D1016093FA025D
:100780007093FB028093FC029093FD021E821D82F7
:1007900033243A949FE0C92ED12CE12CF12C0E94F5
:1007A000D3174B015C010E94D31769837A838B8333
:1007B0009C830E94D3172B013C010E94D1016093BE
:1007C000F6027093F7028093F8029093F902009179
:1007D000FA021091FB022091FC023091FD02DC0133
:1007E000CB01801B910BA20BB30B883C9105A1059B
:1007F000B10508F45CC0ED81FE81EE0FFF1FEF55DF
:10080000FD4F30828181836081830E94D10160939A
:10081000FA027093FB028093FC029093FD026981BF
:100820007A818B819C81A70196010E94DC18162F8A
:10083000C301B201A70196010E94DC18762EC50102
:10084000B401A70196010E94DC18962EA12CB12CB0
:10085000012F272D492DB5018D819E810E94650AAA
:100860008FEFA81AB80A9AE0A916B10489F7ED81AA
:10087000FE813196FE83ED833A97C9F426960FB632
:10088000F894DEBF0FBECDBFDF91CF911F910F91C6
:10089000FF90EF90DF90CF90BF90AF909F908F90A0
:1008A0007F906F905F904F903F900C9427028D81C6
:1008B0009E810A970CF473CF26960FB6F894DEBF8C
:1008C0000FBECDBFDF91CF911F910F91FF90EF90A1
:1008D000DF90CF90BF90AF909F908F907F906F9060
:1008E0005F904F903F900895CF92DF92EF92FF92EA
:1008F000CF93DF930E94D317CEE9D2E02FE0C22E30
:10090000D12CE12CF12CA70196010E94DC18688300
:100910000E94D317A70196010E94DC186A830E94E7
:10092000D317A70196010E94DC186983DF91CF914C
:10093000FF90EF90DF90CF9008950E94E90980E04A
:1009400090E0FC01EE0FFF1FEF55FD4F108221815B
:100950002C7F218301968A30910599F708950F9392
:100960000E949D0400E026E042E064E070E081E047
:1009700090E00E94650A26E042E065E070E081E0D8
:1009800090E00E94650A26E042E066E070E081E0C7
:1009900090E00E94650A26E042E063E070E082E0B9
:1009A00090E00E94650A26E042E067E070E082E0A5
:1009B00090E00E94650A26E041E063E070E083E099
:1009C00090E00E94650A26E042E067E070E083E084
:1009D00090E00E94650A0FE029E047E063E070E0E4
:1009E00084E090E00E94650A29E047E064E070E05E
:1009F00084E090E00E94650A29E047E065E070E04D
:100A000084E090E00E94650A29E047E066E070E03B
:100A100084E090E00E94650A29E047E064E070E02D
:100A200085E090E00E94650A29E047E067E070E019
:100A300085E090E00E94650A29E047E063E070E00D
:100A400086E090E00E94650A29E047E064E070E0FB
:100A500086E090E00E94650A29E047E065E070E0EA
:100A600086E090E00E94650A29E047E066E070E0D9
:100A700086E090E00E94650A00E026E04EE063E038
:100A800070E087E090E00E94650A26E04EE064E0B6
:100A900070E087E090E00E94650A26E04EE065E0A5
:100AA00070E087E090E00E94650A26E04EE066E094
:100AB00070E087E090E00E94650A26E04EE067E083
:100AC00070E087E090E00E94650A26E04EE063E077
:100AD00070E088E090E00E94650A26E04EE063E066
:100AE00070E089E090E00E94650A0E94270226E0FB
:100AF00042E064E070E081E090E00E94650A26E058
:100B000042E065E070E081E090E00E94650A26E046
:100B100042E066E070E081E090E00E94650A26E035
:100B200042E063E070E082E090E00E94650A26E027
:100B300042E067E070E082E090E00E94650A26E013
:100B400041E063E070E083E090E00E94650A26E007
:100B500042E067E070E083E090E00E94650A0FE009
:100B600029E047E063E070E084E090E00E94650ADD
:100B700029E047E064E070E084E090E00E94650ACC
:100B800029E047E065E070E084E090E00E94650ABB
:100B900029E047E066E070E084E090E00E94650AAA
:100BA00029E047E064E070E085E090E00E94650A9B
:100BB00029E047E067E070E085E090E00E94650A88
:100BC00029E047E063E070E086E090E00E94650A7B
:100BD00029E047E064E070E086E090E00E94650A6A
:100BE00029E047E065E070E086E090E00E94650A59
:100BF00029E047E066E070E086E090E00E94650A48
:100C000000E026E04EE063E070E087E090E00E94C4
:100C1000650A26E04EE064E070E087E090E00E9424
:100C2000650A26E04EE065E070E087E090E00E9413
:100C3000650A26E04EE066E070E087E090E00E9402
:100C4000650A26E04EE067E070E087E090E00E94F1
:100C5000650A26E04EE063E070E088E090E00E94E4
:100C6000650A26E04EE063E070E089E090E00E94D3
:100C7000650A0E94270206E025E04DE060E070E092
:100C800081E090E00E94650A25E04DE062E070E0BE
:100C900081E090E00E94650A25E04DE063E070E0AD
:100CA00081E090E00E94650A25E04DE064E070E09C
:100CB00081E090E00E94650A0DE02FE04DE066E0E3
:100CC00070E081E090E00E94650A2FE04DE067E06F
:100CD00070E081E090E00E94650A2FE04DE068E05E
:100CE00070E081E090E00E94650A2FE04DE069E04D
:100CF00070E081E090E00E94650A06E025E04DE0AA
:100D000060E070E082E090E00E94650A25E04DE03E
:100D100062E070E082E090E00E94650A25E04DE02C
:100D200064E070E082E090E00E94650A0DE02FE050
:100D30004DE069E070E082E090E00E94650A06E024
:100D400025E04DE060E070E083E090E00E94650AFD
:100D500025E04DE061E070E083E090E00E94650AEC
:100D600025E04DE062E070E083E090E00E94650ADB
:100D700025E04DE064E070E083E090E00E94650AC9
:100D80000DE02FE04DE066E070E083E090E00E942F
:100D9000650A2FE04DE067E070E083E090E00E949C
:100DA000650A2FE04DE068E070E083E090E00E948B
:100DB000650A2FE04DE069E070E084E090E00E9479
:100DC000650A02E025E04DE060E070E085E090E03B
:100DD0000E94650A25E04DE062E070E085E090E069
:100DE0000E94650A25E04DE063E070E085E090E058
:100DF0000E94650A25E04DE064E070E085E090E047
:100E00000E94650A0DE02FE04DE066E070E085E0AD
:100E100090E00E94650A2FE04DE067E070E085E019
:100E200090E00E94650A2FE04DE068E070E085E008
:100E300090E00E94650A2FE04DE069E070E085E0F7
:100E400090E00E94650A02E025E04DE060E070E07D
:100E500086E090E00E94650A25E04DE062E070E0E7
:100E600086E090E00E94650A25E04DE064E070E0D5
:100E700086E090E00E94650A25E04DE060E070E0C9
:100E800087E090E00E94650A25E04DE061E070E0B7
:100E900087E090E00E94650A25E04DE062E070E0A6
:100EA00087E090E00E94650A25E04DE064E070E094
:100EB00087E090E00E94650A0DE025E04DE066E0E5
:100EC00070E088E090E00E94650A25E04DE067E070
:100ED00070E088E090E00E94650A25E04DE068E05F
:100EE00070E088E090E00E94650A25E04DE069E04E
:100EF00070E088E090E00E94650A0E94270206E008
:100F000025E04DE060E070E081E090E00E94650A3D
:100F100025E04DE062E070E081E090E00E94650A2B
:100F200025E04DE063E070E081E090E00E94650A1A
:100F300025E04DE064E070E081E090E00E94650A09
:100F40000DE02FE04DE066E070E081E090E00E946F
:100F5000650A2FE04DE067E070E081E090E00E94DC
:100F6000650A2FE04DE068E070E081E090E00E94CB
:100F7000650A2FE04DE069E070E081E090E00E94BA
:100F8000650A06E025E04DE060E070E082E090E078
:100F90000E94650A25E04DE062E070E082E090E0AA
:100FA0000E94650A25E04DE064E070E082E090E098
:100FB0000E94650A0DE02FE04DE069E070E082E0FC
:100FC00090E00E94650A06E025E04DE060E070E0F8
:100FD00083E090E00E94650A25E04DE061E070E06A
:100FE00083E090E00E94650A25E04DE062E070E059
:100FF00083E090E00E94650A25E04DE064E070E047
:1010000083E090E00E94650A0DE02FE04DE066E08D
:1010100070E083E090E00E94650A2FE04DE067E019
:1010200070E083E090E00E94650A2FE04DE068E008
:1010300070E083E090E00E94650A2FE04DE069E0F7
:1010400070E084E090E00E94650A02E025E04DE057
:1010500060E070E085E090E00E94650A25E04DE0E8
:1010600062E070E085E090E00E94650A25E04DE0D6
:1010700063E070E085E090E00E94650A25E04DE0C5
:1010800064E070E085E090E00E94650A0DE02FE0EA
:101090004DE066E070E085E090E00E94650A2FE098
:1010A0004DE067E070E085E090E00E94650A2FE087
:1010B0004DE068E070E085E090E00E94650A2FE076
:1010C0004DE069E070E085E090E00E94650A02E092
:1010D00025E04DE060E070E086E090E00E94650A67
:1010E00025E04DE062E070E086E090E00E94650A55
:1010F00025E04DE064E070E086E090E00E94650A43
:1011000025E04DE060E070E087E090E00E94650A35
:1011100025E04DE061E070E087E090E00E94650A24
:1011200025E04DE062E070E087E090E00E94650A13
:1011300025E04DE064E070E087E090E00E94650A01
:101140000DE025E04DE066E070E088E090E00E9470
:10115000650A25E04DE067E070E088E090E00E94DD
:10116000650A25E04DE068E070E088E090E00E94CC
:10117000650A25E04DE069E070E088E090E00E94BB
:10118000650A0F910C9427028EBD00000DB407FE76
:10119000FDCF8EB508950F931F93CF93DF938C01EE
:1011A000EB0186E090E00E94241AFC011183008389
:1011B000D383C28315821482A0919C02B0919D02B8
:1011C000109721F015969C938E931497F0939D029F
:1011D000E0939C02DF91CF911F910F9108951F9290
:1011E0000F920FB60F921124AF92BF92CF92DF925F
:1011F000EF92FF920F931F932F933F934F935F9321
:101200006F937F938F939F93AF93BF93EF93FF93CE
:10121000CF93DF93CDB7DEB72597DEBFCDBF8091EB
:10122000390490913A04019690933A0480933904DA
:101230005C9AE0903904F0903A04C7018D7F0197E1
:1012400051F48091370490913804019690933804BA
:101250008093370404C087E0E816F10491F300910D
:101260003504109136048091370490913804980128
:10127000220F331F220F331F280F391F220F331F56
:10128000F901E45BFD4F908141814370F901E45520
:10129000FE4F808161816370F801EE0FFF1FE95EF0
:1012A000FE4F70815181F901E450FE4FA0802181F1
:1012B000A982D92EDD0CDD0C2370D22ADA82929518
:1012C000969596959370242F220F220FC82EC294C4
:1012D000E0EFCE22922BC92ACB82382F32953F7075
:1012E000462F4295407FB72EB294BB0CBB0CF0EC5E
:1012F000BF22342BB32ABC82352F3295330F330FE4
:10130000307C272F26952695822F832B8D830E9454
:10131000C4088B2D0E94C4088C2D0E94C4088D2DFA
:101320000E94C4088A2D0E94C4088FE0E816F104C8
:1013300089F410923A0410923904109238041092F1
:1013400037048091330490913404019690933404CF
:10135000809333048091330490913404019751F4C5
:101360000F5F1F4F1093360400933504109234041E
:10137000109233045A9A8BB11BB88BB11BB8809171
:101380003504909136040A9721F410923604109295
:1013900035040F900F900F900F900F90DF91CF9129
:1013A000FF91EF91BF91AF919F918F917F916F913D
:1013B0005F914F913F912F911F910F91FF90EF906F
:1013C000DF90CF90BF90AF900F900FBE0F901F9007
:1013D000189520E030E0C90163E0880F991F6A95F5
:1013E000E1F7FC01E45BFD4F108241814C7F4183BA
:1013F000FC01E25BFD4F108241814C7F4183FC0187
:10140000E05BFD4F108241814C7F4183FC01EE5A2D
:10141000FD4F108281818C7F81832F5F3F4F2A3067
:101420003105C9F620E030E0C90153E0880F991F6B
:101430005A95E1F7FC01E450FE4F108241814C7F48
:101440004183FC01E250FE4F108241814C7F418379
:10145000FC01E050FE4F108241814C7F4183FC0132
:10146000EE5FFD4F108281818C7F81832F5F3F4F24
:101470002A303105C9F620E030E0C90143E0880F89
:10148000991F4A95E1F7FC01E455FE4F1082418116
:101490004C7F4183FC01E255FE4F108241814C7F1D
:1014A0004183FC01E055FE4F108241814C7F418316
:1014B000FC01EE54FE4F108281818C7F81832F5F6F
:1014C0003F4F2A303105C9F608958F929F92AF920F
:1014D000BF92CF92DF92EF92FF920F931F93CF9321
:1014E000DF9397FD06C08A3091052CF089E090E0EB
:1014F00002C080E090E077FD06C06A3071052CF0F4
:1015000069E070E002C060E070E0342F403108F024
:101510003FE0203108F02FE0003108F00FE0812C8F
:10152000912C54018394062E04C0880C991CAA1C8B
:10153000BB1C0A94D2F76401F401E095F095E12C0C
:10154000F12CA32EB12CEC01CC0FDD1FCC0FDD1F35
:10155000A5010E2C02C0559547950A94E2F7DE01CD
:10156000AE0DBF1DAA0FBB1FA45BBD4F40FF09C03E
:101570004C9111961C911197512F53704C295D2954
:1015800008C04C9111961C911197512F53704E2306
:101590005F234C93452F43701C7F142B11961C9393
:1015A0001FEFE11AF10A44E0E416F10489F640E085
:1015B00050E0A22EB12CD501042E02C0B595A795FE
:1015C0000A94E2F7A0FF11C0DE01A40FB51FAA0F15
:1015D000BB1FA455BE4FEC9011969C901197192DEE
:1015E0001370F12EEC28FD2810C0DE01A40FB51FEA
:1015F000AA0FBB1FA455BE4FEC9011969C9011975B
:10160000192D1370F12EEE22FF22EC921F2D137074
:10161000F12E192D1C7F1F2911961C934F5F5F4FD0
:101620004430510541F640E050E0A02EB12CD501E8
:10163000042E02C0B595A7950A94E2F7A0FF11C049
:10164000DE01A40FB51FAA0FBB1FA450BE4FEC9024
:1016500011969C901197192D1370F12EEC28FD28EE
:1016600010C0DE01A40FB51FAA0FBB1FA450BE4FB0
:10167000EC9011969C901197192D1370F12EEE227B
:10168000FF22EC921F2D1370F12E192D1C7F1F29A4
:1016900011961C934F5F5F4F4430510541F6AB01EB
:1016A000440F551F640F751F4EE1489FF001499F7D
:1016B000F00D11246E0F7F1FFB01E250FD4F3283AE
:1016C00000832183DF91CF911F910F91FF90EF90C5
:1016D000DF90CF90BF90AF909F908F9008952F9202
:1016E0003F924F925F926F927F928F929F92AF92B2
:1016F000BF92CF92DF92EF92FF920F931F93CF93FF
:10170000DF938230910509F444C48330910509F4D4
:1017100054C4019709F0C6C40E949D0400E020E073
:101720004FE064E070E084E090E00E94650A20E011
:101730004FE065E070E084E090E00E94650A20E000
:101740004FE064E070E085E090E00E94650A20E0F0
:101750004FE065E070E085E090E00E94650A0E943D
:1017600027022FE04FE063E070E082E090E00E940B
:10177000650A2FE04FE064E070E082E090E00E94B4
:10178000650A2FE04FE065E070E082E090E00E94A3
:10179000650A2FE04FE066E070E082E090E00E9492
:1017A000650A2FE04FE062E070E083E090E00E9485
:1017B000650A2FE04FE067E070E083E090E00E9470
:1017C000650A2FE04FE062E070E084E090E00E9464
:1017D000650A20E04FE064E070E084E090E00E9461
:1017E000650A20E04FE065E070E084E090E00E9450
:1017F000650A2FE04FE067E070E084E090E00E942F
:10180000650A2FE04FE062E070E085E090E00E9422
:10181000650A20E040E063E070E085E090E00E942F
:10182000650A20E04FE064E070E085E090E00E940F
:10183000650A20E04FE065E070E085E090E00E94FE
:10184000650A20E040E066E070E085E090E00E94FC
:10185000650A2FE04FE067E070E085E090E00E94CD
:10186000650A20E040E068E070E085E090E00E94DA
:10187000650A20E040E069E070E085E090E00E94C9
:10188000650A20E040E060E070E086E090E00E94C1
:10189000650A20E040E061E070E086E090E00E94B0
:1018A000650A2FE04FE062E070E086E090E00E9481
:1018B000650A2FE04FE067E070E086E090E00E946C
:1018C000650A2FE04FE063E070E087E090E00E945F
:1018D000650A2FE04FE064E070E087E090E00E944E
:1018E000650A2FE04FE065E070E087E090E00E943D
:1018F000650A2FE04FE066E070E087E090E00E942C
:10190000650A0E94270220E040E061E070E080E08C
:1019100090E00E94650A0FE020E04FE062E070E096
:1019200080E090E00E94650A20E04FE063E070E014
:1019300080E090E00E94650A20E04FE064E070E003
:1019400080E090E00E94650A20E04FE065E070E0F2
:1019500080E090E00E94650A20E04FE066E070E0E1
:1019600080E090E00E94650A20E04FE067E070E0D0
:1019700080E090E00E94650A00E020E040E068E03E
:1019800070E080E090E00E94650A20E040E069E0BD
:1019900070E080E090E00E94650A20E040E060E0B6
:1019A00070E081E090E00E94650A0FE020E04FE0E7
:1019B00061E070E081E090E00E94650A00E020E0D4
:1019C00040E062E070E081E090E00E94650A20E083
:1019D00040E063E070E081E090E00E94650A20E072
:1019E00040E064E070E081E090E00E94650A20E061
:1019F00040E065E070E081E090E00E94650A20E050
:101A000040E066E070E081E090E00E94650A20E03E
:101A100040E067E070E081E090E00E94650A0FE03E
:101A200020E04FE068E070E081E090E00E94650A0D
:101A300000E020E040E069E070E081E090E00E949A
:101A4000650A0FE020E04FE060E070E082E090E0A7
:101A50000E94650A00E020E040E061E070E082E082
:101A600090E00E94650A20E040E062E070E082E0E1
:101A700090E00E94650A2FE04FE063E070E082E0B2
:101A800090E00E94650A2FE04FE064E070E082E0A1
:101A900090E00E94650A2FE04FE065E070E082E090
:101AA00090E00E94650A2FE04FE066E070E082E07F
:101AB00090E00E94650A20E040E067E070E082E08C
:101AC00090E00E94650A20E040E068E070E082E07B
:101AD00090E00E94650A0FE020E04FE069E070E0CE
:101AE00082E090E00E94650A20E04FE060E070E054
:101AF00083E090E00E94650A00E020E040E061E0C1
:101B000070E083E090E00E94650A2FE04FE062E021
:101B100070E083E090E00E94650A20E040E063E02E
:101B200070E083E090E00E94650A20E040E064E01D
:101B300070E083E090E00E94650A20E040E065E00C
:101B400070E083E090E00E94650A20E040E066E0FB
:101B500070E083E090E00E94650A2FE04FE067E0CC
:101B600070E083E090E00E94650A20E040E068E0D9
:101B700070E083E090E00E94650A0FE020E04FE013
:101B800069E070E083E090E00E94650A20E04FE0A9
:101B900060E070E084E090E00E94650A00E020E0F0
:101BA00040E061E070E084E090E00E94650A2FE090
:101BB0004FE062E070E084E090E00E94650A20E07F
:101BC00040E063E070E084E090E00E94650A20E07D
:101BD0004FE064E070E084E090E00E94650A20E05D
:101BE0004FE065E070E084E090E00E94650A20E04C
:101BF00040E066E070E084E090E00E94650A2FE03B
:101C00004FE067E070E084E090E00E94650A20E029
:101C100040E068E070E084E090E00E94650A0FE038
:101C200020E04FE069E070E084E090E00E94650A07
:101C300020E04FE060E070E085E090E00E94650AFF
:101C400000E020E040E061E070E085E090E00E948C
:101C5000650A2FE04FE062E070E085E090E00E94CE
:101C6000650A20E040E063E070E085E090E00E94DB
:101C7000650A20E04FE064E070E085E090E00E94BB
:101C8000650A20E04FE065E070E085E090E00E94AA
:101C9000650A20E040E066E070E085E090E00E94A8
:101CA000650A2FE04FE067E070E085E090E00E9479
:101CB000650A20E040E068E070E085E090E00E9486
:101CC000650A0FE020E04FE069E070E085E090E019
:101CD0000E94650A20E04FE060E070E086E090E05E
:101CE0000E94650A00E020E040E061E070E086E0EC
:101CF00090E00E94650A2FE04FE062E070E086E02D
:101D000090E00E94650A20E040E063E070E086E039
:101D100090E00E94650A20E040E064E070E086E028
:101D200090E00E94650A20E040E065E070E086E017
:101D300090E00E94650A20E040E066E070E086E006
:101D400090E00E94650A2FE04FE067E070E086E0D7
:101D500090E00E94650A20E040E068E070E086E0E4
:101D600090E00E94650A0FE020E04FE069E070E03B
:101D700086E090E00E94650A20E04FE060E070E0BD
:101D800087E090E00E94650A00E020E040E061E02A
:101D900070E087E090E00E94650A20E040E062E0A9
:101DA00070E087E090E00E94650A2FE04FE063E07A
:101DB00070E087E090E00E94650A2FE04FE064E069
:101DC00070E087E090E00E94650A2FE04FE065E058
:101DD00070E087E090E00E94650A2FE04FE066E047
:101DE00070E087E090E00E94650A20E040E067E054
:101DF00070E087E090E00E94650A20E040E068E043
:101E000070E087E090E00E94650A0FE020E04FE07C
:101E100069E070E087E090E00E94650A00E020E061
:101E200040E060E070E088E090E00E94650A0FE02A
:101E300020E04FE061E070E088E090E00E94650AF9
:101E400000E020E040E062E070E088E090E00E9486
:101E5000650A20E040E063E070E088E090E00E94E6
:101E6000650A20E040E064E070E088E090E00E94D5
:101E7000650A20E040E065E070E088E090E00E94C4
:101E8000650A20E040E066E070E088E090E00E94B3
:101E9000650A20E040E067E070E088E090E00E94A2
:101EA000650A0FE020E04FE068E070E088E090E035
:101EB0000E94650A00E020E040E069E070E088E010
:101EC00090E00E94650A20E040E060E070E089E078
:101ED00090E00E94650A20E040E061E070E089E067
:101EE00090E00E94650A0FE020E04FE062E070E0C1
:101EF00089E090E00E94650A20E04FE063E070E036
:101F000089E090E00E94650A20E04FE064E070E024
:101F100089E090E00E94650A20E04FE065E070E013
:101F200089E090E00E94650A20E04FE066E070E002
:101F300089E090E00E94650A20E04FE067E070E0F1
:101F400089E090E00E94650A00E020E040E068E05F
:101F500070E089E090E00E94650A20E040E069E0DE
:101F600070E089E090E00E94650ADF91CF911F91B7
:101F70000F91FF90EF90DF90CF90BF90AF909F9028
:101F80008F907F906F905F904F903F902F900C9428
:101F90002702DF91CF911F910F91FF90EF90DF907B
:101FA000CF90BF90AF909F908F907F906F905F90F9
:101FB0004F903F902F900C94A6030E94E9090E9435
:101FC000D1016093FA027093FB028093FC0290931C
:101FD000FD02C0E0D0E01FEF9FE0C92ED12CE12C24
:101FE000F12CCA30D10509F45DC00E94D101609383
:101FF000F6027093F7028093F8029093F9028090B2
:10200000FA029090FB02A090FC02B090FD02DC016D
:10201000CB0188199909AA09BB09883C9105A1053A
:10202000B105F8F2FE01EE0FFF1FEF55FD4F1083D3
:102030008181836081830E94D1016093FA02709351
:10204000FB028093FC029093FD02212C312C0E9414
:10205000D3174B015C010E94D3172B013C010E9456
:10206000D317A70196010E94DC18062FC301B20105
:10207000A70196010E94DC18762EC501B401A701C4
:1020800096010E94DC18462F272DB101CE010E9437
:10209000650A8FEF281A380A8AE028163104B9F643
:1020A00021969FCFDF91CF911F910F91FF90EF90DD
:1020B000DF90CF90BF90AF909F908F907F906F9068
:1020C0005F904F903F902F9008950895CF92DF92A8
:1020D000EF92FF920F931F93CF93DF936C017A01DE
:1020E0008B01C0E0D0E0CE15DF0589F0D8016D91FD
:1020F0008D01D601ED91FC910190F081E02DC6019A
:102100000995892B11F47E0102C02196ECCFC701FD
:10211000DF91CF911F910F91FF90EF90DF90CF90C3
:1021200008950E941B1C009769F0FC01019000209B
:10213000E9F73197AF01481B590BBC018BE394E0E1
:102140000C94661080E090E00895CF93DF930E9496
:102150009310EC018EE991E00E9493108C0F9D1F6B
:10216000DF91CF9108958F929F92AF92BF920F937C
:102170001F93CF93DF93CDB7DEB7A1970FB6F89437
:10218000DEBF0FBECDBF19A2423008F44AE08E0177
:102190000F5D1F4F842E912CA12CB12CA501940111
:1021A0000E944519E62FB901CA0101501109EA3010
:1021B00014F4E05D01C0E95CD801EC93232B242BDF
:1021C000252B61F7C8010E949310A1960FB6F894D1
:1021D000DEBF0FBECDBFDF91CF911F910F91BF909A
:1021E000AF909F908F900895CF93DF93BC0180E0D4
:1021F00090E042E00E94B310EC018EE991E00E9471
:1022000093108C0F9D1FDF91CF91089590E0FC01FA
:10221000EC55FF4F2491FC01E057FF4F8491882338
:1022200099F090E0880F991FFC01EA57FF4FA591A4
:10223000B491FC01E458FF4F859194918FB7F894C5
:10224000EC91E22BEC938FBF0895FC018091DC04AC
:102250009091DD04892B21F421E0309749F413C0DB
:102260008091D8049091D904309731F421E0FC0199
:102270008081882341F006C0BF010E94291C21E013
:10228000892B09F020E0822F08950F931F930E945D
:10229000D101609343047093440480934504909368
:1022A0004604E0913B04F0913C040680F781E02D68
:1022B0008BE394E0099597FF1FC00E94D101009124
:1022C0004304109144042091450430914604DC01FC
:1022D000CB01801B910BA20BB30B00913F0410911B
:1022E0004004209141043091420480179107A207D5
:1022F000B307B8F28FEF9FEF1F910F9108950F93DF
:102300001F93CF93DF93EC0188819981009729F087
:102310002A813B812617370788F48B016F5F7F4F37
:102320000E94511B009761F0998388831B830A8365
:102330002C813D81232B11F4FC01108281E001C02E
:1023400080E0DF91CF911F910F910895EF92FF925E
:102350000F931F93CF93DF93EC017B018A01BA01A6
:102360000E947F112881398181110DC0211531050D
:1023700019F0C9010E94B91A198218821D821C82A3
:102380001B821A8206C01D830C83B701C9010E94FB
:10239000321CCE01DF91CF911F910F91FF90EF90F2
:1023A0000895CF93DF93CDB7DEB728970FB6F89493
:1023B000DEBF0FBECDBF789484B5826084BD84B586
:1023C000816084BD85B5826085BD85B5816085BD30
:1023D00080916E00816080936E00109281008091E8
:1023E0008100826080938100809181008160809370
:1023F0008100809180008160809380008091B10095
:1024000084608093B1008091B00081608093B000BF
:1024100080917A00846080937A0080917A00826053
:1024200080937A0080917A00816080937A00809115
:102430007A00806880937A001092C1008CB58F7DFD
:102440008CBD8CB5837F8CBD8CB58C7F8CBD8DB5E0
:1024500081608DBDF894109280008BE080938100A4
:1024600082E080936F008AE090E0909389008093EF
:10247000880082E00E9406118BE00E9406118DE028
:102480000E94061184E00E9406111FB7F894809103
:10249000E902811163C08AE990E0FC0124914EEACF
:1024A00050E0FA01649130E0220F331F2A573F4F6A
:1024B000F901A591B4912C91622309F040C0E2E7A3
:1024C000F0E02491FA014491FC0194919923B9F12F
:1024D000222339F1233091F038F42130A9F0223051
:1024E00001F584B58F7D12C0273091F02830A1F01E
:1024F0002430B9F4809180008F7D03C080918000EA
:102500008F77809380000DC084B58F7784BD09C01C
:102510008091B0008F7703C08091B0008F7D809351
:10252000B000E92FF0E0EE0FFF1FE458FF4FA59138
:10253000B4918FB7F8949C91492B4C938FBF8AE04C
:102540000E9406118CB580618CBD8CB580648CBDF9
:102550008DE00E9406118BE00E9406118091E90235
:102560008F5F8093E9021FBF84E480937C00809199
:102570007A00806480937A0080917A0086FDFCCF97
:10258000609178008091790070E0782B072E000C24
:10259000880B990B611571058105910511F00E9459
:1025A000D8170E947404E0914B04F0914C0482E02F
:1025B0008083E0914704F09148041082E09149043F
:1025C000F0914A048FEC808310925304E0914F0401
:1025D000F091500486E08083E0914D04F0914E0428
:1025E000808180618083E0914D04F0914E04808170
:1025F00088608083E0914D04F0914E048081806872
:102600008083E0914D04F0914E0480818F7D808322
:102610000E949D048BE391E00E94A51000E010E071
:10262000E12CF12C6801CC0CDD1CCC0CDD1CF6017E
:10263000EE0DFF1DEE0FFF1FE45BFD4F91818081CA
:1026400093700E94F410FFEFEF1AFF0A24E0E216E5
:10265000F10469F70F5F1F4F0A30110509F78FE387
:1026600091E00E94A51000E010E0E12CF12C68013F
:10267000CC0CDD1CCC0CDD1CF601EE0DFF1DEE0FAD
:10268000FF1FE450FE4F9181808193700E94F410EF
:102690003FEFE31AF30A84E0E816F10469F70F5FED
:1026A0001F4F0A30110509F784E491E00E94A5103C
:1026B00000E010E0E12CF12C6801CC0CDD1CCC0C0E
:1026C000DD1CF601EE0DFF1DEE0FFF1FE455FE4F62
:1026D0009181808193700E94F4109FEFE91AF90AAA
:1026E000A4E0EA16F10469F70F5F1F4F0A301105E5
:1026F00009F78AE491E00E94A5107894F3E02F2E68
:10270000312CA7E08A2E912CA12CB12C1A8219828F
:102710001C821B821E821D8240E050E060EA71E054
:10272000CE0101960E94A6110E94451197FD1EC080
:102730008A309105D9F08F8318860D811E810F5F35
:102740001F4FB801CE0101960E947F11882361F3CB
:1027500029813A818D819E81BE01695F7F4F820F01
:10276000931F0E94321C1E830D83DECF8091D804FC
:102770009091D904009789F069817A81611571057A
:1027800051F04091DA045091DB042D813E814217D3
:10279000530708F070C30E94B91A89819A819093F7
:1027A000D9048093D8048B819C819093DB0480931F
:1027B000DA048D819E819093DD048093DC041A827B
:1027C00019821C821B821E821D8289819A810E942D
:1027D000B91A8EE491E00E942511882339F08EE425
:1027E00091E00E94A51082E090E017C083E591E09F
:1027F0000E942511882339F00E949D041092F50251
:102800001092F4021BC088E591E00E9425118823F4
:1028100049F00E949D0481E090E09093F50280933E
:10282000F4020CC08EE591E00E942511882331F05E
:102830000E949D043092F5022092F402E090F4028E
:10284000F090F502B1E0EB16F10479F01CF4EF28FA
:10285000D1F10EC3F2E0EF16F10409F498C223E0BF
:10286000E216F10409F4C3C203C362E070E082E03F
:1028700090E00E94CB0880919C0290919D029093E1
:10288000EB028093EA0262E070E083E090E00E9455
:10289000CB080E94D1016093F0027093F102809303
:1028A000F2029093F3020E94D1016093EC027093C4
:1028B000ED028093EE029093EF0210920C014424FB
:1028C0004394512C9CC084E691E00E9425118823FA
:1028D000A9F08091E7029091E802FC01EE0FFF1F42
:1028E000EB54FD4F22E030E031832083019690933A
:1028F000E8028093E7028DE691E018C089E791E055
:102900000E9425118823B9F08091E7029091E80296
:10291000FC01EE0FFF1FEB54FD4F11821082019658
:102920009093E8028093E70282E891E00E94A5106C
:102930000E94E0029DC28EE891E00E94251188234A
:10294000A9F08091E7029091E802FC01EE0FFF1FD1
:10295000EB54FD4F21E030E03183208301969093CA
:10296000E8028093E70282E991E0E0CF89E991E013
:102970000E942511882309F47BC20E94AF040E94A3
:10298000AF040E94AF040E94AF040E94AF040E94F3
:10299000AF040E94AF040E94AF040E94AF040E94E3
:1029A000AF040E94AF040E94AF040E94AF040E94D3
:1029B000AF040E949D04BCCF87379105E1F580915B
:1029C000080190910901029731F081E090E0909325
:1029D0000B0180930A018091F0029091F102A09185
:1029E000F202B091F302B701A601481B590B6A0B22
:1029F0007B0B403451406105710508F04FC0709069
:102A00000C017110BFC10E94D1016B017C01609368
:102A1000EC027093ED028093EE029093EF028BE351
:102A200094E00E9488008137910531F61092F502FA
:102A30001092F402A7C18337910569F480910801CF
:102A400090910901019739F2A2E0B0E0B0930B0137
:102A5000A0930A01C0CF8436910571F480910801DA
:102A600090910901049709F4B6CFE3E0F0E0F09308
:102A70000B01E0930A01AFCF8136910509F0ABCF8E
:102A80008091080190910901039709F4A4CF24E0F3
:102A900030E030930B0120930A019DCF20910A0171
:102AA00030910B013093090120930801A0919C0201
:102AB000B0919D028D919C91119712966D917C9190
:102AC00013972130310519F4615071090FC022307C
:102AD000310519F46F5F7F4F09C02330310511F4C0
:102AE000019704C02430310509F401968B3091051B
:102AF00034F4181619062CF08AE090E002C081E048
:102B000090E06B30710534F4161617062CF06AE06D
:102B100070E002C061E070E00091EA021091EB0207
:102B2000F801309781F0208131818217930729F4D1
:102B3000228133816217730721F00480F581E02D33
:102B4000F0CF7724739470920C01711086C020919D
:102B50000001309101018217930709F069C02091AB
:102B60000201309103016217730709F061C00E94EE
:102B7000CB080E94D317A50194010E94DC186F5F57
:102B80007F4F70930101609300010E94D317A5014C
:102B900094010E94DC186F5F7F4F70930301609374
:102BA0000201C0900001D09001010D2C000CEE0834
:102BB000FF08F7FE14C0E0913B04F0913C04019043
:102BC000F081E02D6DE28BE394E00995662777278D
:102BD000CB016C197D098E099F094AE003C04AE0C8
:102BE000C701B6010E94B3108EE991E00E949310D4
:102BF0000E947404809100019091010120910201D2
:102C0000309103010115110541F1D8014D915C91FD
:102C100011978417950741F412964D915C91139783
:102C20002417350709F4A5CFF80104811581EACFEF
:102C3000F801248135813093EB022093EA02159646
:102C40001C930E93149710939D0200939C02918302
:102C5000808373836283158214820091EA0210914B
:102C6000EB020E949D040115110539F1D80112965D
:102C7000ED91FC911397EE0FFF1FE156FD4F8D91E3
:102C80009C9111972AE030E0281B390BA20102C069
:102C9000440F551F2A95E2F780812181922F93706E
:102CA000842B952B8083892F83702C7F282B218365
:102CB00014960D911C911597D6CFE12CF12CC12CB7
:102CC000D12CC701880F991FDC01AF55BD4F3D01C5
:102CD000D3018C9111962C91922F93700C2C02C0E1
:102CE000959587950A94E2F780FF0AC000919F02AC
:102CF00020919E024091A002B601C7010E94650A80
:102D0000BFEFCB1ADB0AEAE0CE16D10409F7FFEFDA
:102D1000EF1AFF0A2AE0E216F10489F68091020117
:102D20009091030101972091000130910101B701B9
:102D3000621B730BFC01EE0FFF1FEF55FD4FA2014D
:102D4000062E02C0440F551F0A94E2F72081A1818C
:102D50003A2F3370242B352B2083232F2370AC7F05
:102D6000A22BA1830FE02FE04FE00E94650A0E9492
:102D7000D1016093F0027093F1028093F20290937C
:102D8000F3023DCE0E94A6030E949D0471C081EA19
:102D900091E00E94251100910601109107018823FE
:102DA00069F00330110539F481E090E09093070158
:102DB0008093060117C00F5F1F4F10C086EA91E095
:102DC0000E942511882371F00130110529F43092F9
:102DD00007012092060106C0015011091093070156
:102DE0000093060180910601909107013FC081EA9E
:102DF00091E00E94251100910401109105018823A2
:102E000069F00330110539F481E090E090930501F9
:102E10008093040117C00F5F1F4F10C086EA91E036
:102E20000E942511882371F00130110529F4F092D8
:102E30000501E092040106C001501109109305013B
:102E40000093040180910401909105018230910565
:102E500041F08330910541F0019751F481E090E019
:102E600005C082E090E002C083E090E00E946F0B1A
:102E70000E94A2014BCC0E94321C8D819E819093B6
:102E8000DD048093DC049FCC8091D8049091D90418
:102E90000C94B91AEBE3F4E01382128288EE93E00B
:102EA000A0E0B0E084839583A683B7838FE291E0AE
:102EB0009183808385EC90E09587848784EC90E013
:102EC0009787868780EC90E0918B808B81EC90E0F7
:102ED000938B828B82EC90E0958B848B86EC90E0D8
:102EE000978B868B118E128E138E148EE8EDF4E084
:102EF00011821082138212821582148240E050E007
:102F000060EA71E0CF010C94A6118F929F92AF926C
:102F1000BF92CF92DF92EF92FF92CF93DF93EC01BB
:102F2000688179818A819B8161157105810591058F
:102F300021F464E279ED8BE597E02DE133EF41E098
:102F400050E00E94DC1849015A019B01AC01A7EA3C
:102F5000B1E40E94FB186B017C01ACEEB4EFA5015B
:102F600094010E940919DC01CB018C0D9D1DAE1D41
:102F7000BF1DB7FF03C00197A109B048888399839B
:102F8000AA83BB83BC01CD019F77DF91CF91FF90D6
:102F9000EF90DF90CF90BF90AF909F908F9008956B
:102FA0000E94851708958DE091E00E94851708958D
:102FB00060930D0170930E0180930F0190931001A7
:102FC0000895E89409C097FB3EF49095809570951C
:102FD00061957F4F8F4F9F4F9923A9F0F92F96E965
:102FE000BB279395F695879577956795B795F111DA
:102FF000F8CFFAF4BB0F11F460FF1BC06F5F7F4F77
:103000008F4F9F4F16C0882311F096E911C0772388
:1030100021F09EE8872F762F05C0662371F096E891
:10302000862F70E060E02AF09A95660F771F881F60
:10303000DAF7880F9695879597F908950E943118C9
:103040000C94A2180E94941838F00E949B1820F04B
:10305000952311F00C948B180C94911811240C9456
:10306000D6180E94B31870F3959FC1F3950F50E0E6
:10307000551F629FF001729FBB27F00DB11D639F2A
:10308000AA27F00DB11DAA1F649F6627B00DA11DD0
:10309000661F829F2227B00DA11D621F739FB00D76
:1030A000A11D621F839FA00D611D221F749F3327E6
:1030B000A00D611D231F849F600D211D822F762F7F
:1030C0006A2F11249F5750409AF0F1F088234AF05C
:1030D000EE0FFF1FBB1F661F771F881F91505040C8
:1030E000A9F79E3F510580F00C948B180C94D618CC
:1030F0005F3FE4F3983ED4F3869577956795B7954F
:10310000F795E7959F5FC1F7FE2B880F911D969568
:10311000879597F9089597F99F6780E870E060E0D8
:1031200008959FEF80EC089500240A941616170660
:1031300018060906089500240A94121613061406A8
:1031400005060895092E0394000C11F4882352F00B
:10315000BB0F40F4BF2B11F460FF04C06F5F7F4FC3
:103160008F4F9F4F089557FD9058440F551F59F0AA
:103170005F3F71F04795880F97FB991F61F09F3F64
:1031800079F087950895121613061406551FF2CF8D
:103190004695F1DF08C0161617061806991FF1CFDD
:1031A00086957105610508940895E894BB27662704
:1031B0007727CB0197F90895052E97FB1EF400940D
:1031C0000E94F31857FD07D00E94451907FC03D051
:1031D0004EF40C94F31850954095309521953F4F3F
:1031E0004F4F5F4F089590958095709561957F4FF3
:1031F0008F4F9F4F08950E946719A59F900DB49F10
:10320000900DA49F800D911D11240895B7FF0C947B
:10321000FB180E94FB18821B930B08952F923F927C
:103220004F925F926F927F928F929F92AF92BF92D6
:10323000CF92DF92EF92FF920F931F93CF93DF9382
:10324000CDB7DEB7CA1BDB0B0FB6F894DEBF0FBEDF
:10325000CDBF09942A88398848885F846E847D842C
:103260008C849B84AA84B984C884DF80EE80FD802E
:103270000C811B81AA81B981CE0FD11D0FB6F894A4
:10328000DEBF0FBECDBFED010895A1E21A2EAA1B2D
:10329000BB1BFD010DC0AA1FBB1FEE1FFF1FA21706
:1032A000B307E407F50720F0A21BB30BE40BF50B03
:1032B000661F771F881F991F1A9469F7609570958C
:1032C000809590959B01AC01BD01CF010895A29F0F
:1032D000B001B39FC001A39F700D811D1124911DEA
:1032E000B29F700D811D1124911D08950E948A19AD
:1032F0000C94A2180E949B1858F00E94941840F059
:1033000029F45F3F29F00C948B1851110C94D618B6
:103310000C9491180E94B31868F39923B1F35523C4
:1033200091F3951B550BBB27AA27621773078407D8
:1033300038F09F5F5F4F220F331F441FAA1FA9F36E
:1033400035D00E2E3AF0E0E832D091505040E6955C
:10335000001CCAF72BD0FE2F29D0660F771F881FBD
:10336000BB1F261737074807AB07B0E809F0BB0BB0
:10337000802DBF01FF2793585F4F3AF09E3F5105C4
:1033800078F00C948B180C94D6185F3FE4F3983EB9
:10339000D4F3869577956795B795F7959F5FC9F7AD
:1033A000880F911D9695879597F90895E1E0660F2E
:1033B000771F881FBB1F621773078407BA0720F0A7
:1033C000621B730B840BBA0BEE1F88F7E095089510
:1033D0000E94EF196894B1110C94D61808950E94B8
:1033E000BB1888F09F5798F0B92F9927B751B0F0C4
:1033F000E1F0660F771F881F991F1AF0BA95C9F779
:1034000014C0B13091F00E94D518B1E008950C9429
:10341000D518672F782F8827B85F39F0B93FCCF3DC
:10342000869577956795B395D9F73EF490958095F5
:10343000709561957F4F8F4F9F4F0895EE0FFF1F3F
:103440000590F491E02D0994CF93DF93823091059C
:1034500010F482E090E0E091E004F091E10420E0DB
:1034600030E0C0E0D0E0309711F140815181481741
:103470005907C0F04817590761F48281938120975A
:1034800019F09B838A832BC09093E1048093E0041E
:1034900026C02115310519F04217530718F49A0177
:1034A000BE01DF01EF010280F381E02DDCCF2115A9
:1034B000310509F1281B390B2430310590F412969F
:1034C0008D919C9113976115710521F0FB019383F8
:1034D000828304C09093E1048093E004FD0132965E
:1034E00044C0FD01E20FF31F8193919322503109F3
:1034F0002D933C933AC02091DE043091DF04232BBE
:1035000041F420911301309114013093DF04209392
:10351000DE0420911101309112012115310541F491
:103520002DB73EB74091150150911601241B350B64
:10353000E091DE04F091DF04E217F307A0F42E1B04
:103540003F0B2817390778F0AC014E5F5F4F241707
:10355000350748F04E0F5F1F5093DF044093DE04A1
:103560008193919302C0E0E0F0E0CF01DF91CF9131
:1035700008950F931F93CF93DF93009709F48CC0A6
:10358000FC013297138212820091E0041091E10451
:103590000115110581F420813181820F931F209143
:1035A000DE043091DF042817390779F5F093DF0442
:1035B000E093DE0471C0D80140E050E0AE17BF07D1
:1035C00050F412962D913C911397AD0121153105C0
:1035D00009F1D901F3CF9D01DA01338322836081A0
:1035E0007181860F971F8217930769F4EC01288178
:1035F0003981260F371F2E5F3F4F318320838A8109
:103600009B8193838283452B29F4F093E104E0931B
:10361000E00442C01396FC93EE931297ED0149919A
:1036200059919E01240F351FE217F30771F4808131
:103630009181840F951F029611969C938E9382819F
:10364000938113969C938E931297E0E0F0E0D8015B
:1036500012968D919C911397009719F0F8018C01A7
:10366000F6CF8D919C9198012E5F3F4F820F931F53
:103670002091DE043091DF042817390769F4309770
:1036800029F41092E1041092E00402C01382128225
:103690001093DF040093DE04DF91CF911F910F910F
:1036A0000895A0E0B0E0E7E5FBE10C941219EC010D
:1036B000009721F4CB010E94241AB8C0FC01E60F48
:1036C000F71F9C0122503109E217F30708F4ACC040
:1036D000D9010D911C91119706171707B0F005300D
:1036E000110508F49FC0C80104978617970708F4CE
:1036F00099C002501109061B170B019311936D938A
:103700007C93CF010E94B91A8DC05B01A01AB10A47
:103710004C01800E911EA091E004B091E10440E0C4
:1037200050E0E12CF12C109709F44AC0A815B90516
:10373000D1F56D907C901197630182E0C80ED11C89
:10374000CA14DB0480F1A3014A195B096A0182E013
:10375000C80ED11C1296BC9012971396AC91B5E08E
:10376000CB16D10440F0B282A38351834083D901A8
:103770006D937C930AC00E5F1F4FC301800F911F92
:10378000F90191838083EB2DFA2FE114F10431F0DC
:10379000D7011396FC93EE93129744C0F093E10483
:1037A000E093E0043FC08D919C9111974817590711
:1037B00008F4AC017D0112960D90BC91A02DB3CF01
:1037C0008091DE049091DF0488159905E1F4461795
:1037D0005707C8F48091110190911201009741F4AC
:1037E0008DB79EB74091150150911601841B950B22
:1037F000E817F907C8F4F093DF04E093DE04F90159
:10380000718360830FC0CB010E94241A7C01009752
:1038100059F0A801BE010E94201CCE010E94B91AD5
:10382000C70104C0CE0102C080E090E0CDB7DEB792
:10383000EEE00C942E1981E090E0F8940C94391C81
:10384000FB01DC0102C001900D9241505040D8F7BD
:103850000895FB01DC018D91019080190110D9F3CD
:10386000990B0895FB01DC0101900D920020E1F716
:10387000089510E0CDE5D0E004C0FE010E941E1ABC
:0C3880002196CE35D107C9F7F894FFCF90
:10388C000500050001000100040004000101000016
:10389C00000000E2048000000200018000400020D3
:1038AC00001000080004000200010000000000E10C
:1038BC00006610AA0088009C0028017265640062F2
:1038CC006C756500677265656E00656E6400616E8F
:1038DC00696D006E6F746900736E616B65006D7558
:1038EC007369630066616365626F6F6B0066616329
:1038FC0065626F6F6B2072650077686174736170BD
:10390C007000776861747361707020726500736DFC
:10391C007300736D732072650063616C6C000D0A2B
:0C392C00006E6578740070726576000013
:107E0000112484B714BE81FFF0D085E080938100F7
:107E100082E08093C00088E18093C10086E0809377
:107E2000C20080E18093C4008EE0C9D0259A86E02C
:107E300020E33CEF91E0309385002093840096BBD3
:107E4000B09BFECF1D9AA8958150A9F7CC24DD24C4
:107E500088248394B5E0AB2EA1E19A2EF3E0BF2EE7
:107E6000A2D0813461F49FD0082FAFD0023811F036
:107E7000013811F484E001C083E08DD089C08234E0
:107E800011F484E103C0853419F485E0A6D080C0E4
:107E9000853579F488D0E82EFF2485D0082F10E0AE
:107EA000102F00270E291F29000F111F8ED06801E7
:107EB0006FC0863521F484E090D080E0DECF843638
:107EC00009F040C070D06FD0082F6DD080E0C81688
:107ED00080E7D80618F4F601B7BEE895C0E0D1E017
:107EE00062D089930C17E1F7F0E0CF16F0E7DF06D8
:107EF00018F0F601B7BEE89568D007B600FCFDCFD4
:107F0000A601A0E0B1E02C9130E011968C91119780
:107F100090E0982F8827822B932B1296FA010C0160
:107F200087BEE89511244E5F5F4FF1E0A038BF0790
:107F300051F7F601A7BEE89507B600FCFDCF97BE46
:107F4000E89526C08437B1F42ED02DD0F82E2BD052
:107F50003CD0F601EF2C8F010F5F1F4F84911BD097
:107F6000EA94F801C1F70894C11CD11CFA94CF0C13
:107F7000D11C0EC0853739F428D08EE10CD085E9AC
:107F80000AD08FE07ACF813511F488E018D01DD067
:107F900080E101D065CF982F8091C00085FFFCCF94
:107FA0009093C60008958091C00087FFFCCF809118
:107FB000C00084FD01C0A8958091C6000895E0E648
:107FC000F0E098E1908380830895EDDF803219F02E
:107FD00088E0F5DFFFCF84E1DECF1F93182FE3DFCA
:107FE0001150E9F7F2DF1F91089580E0E8DFEE27F6
:047FF000FF270994CA
:027FFE00040479
:0400000300007E007B
:00000001FF